:020000040800F2
:100000005807002089010008B506000845050008CA
:100010000D0600083B020008990C000800000000D3
:10002000000000000000000000000000750800084B
:100030002D040008000000003D07000889090008A1
:10004000A3010008A3010008A3010008A301000800
:10005000A3010008A3010008A3010008A3010008F0
:10006000A3010008A3010008A3010008A3010008E0
:10007000A3010008A3010008A3010008A3010008D0
:10008000A3010008A3010008A3010008A3010008C0
:10009000A3010008A3010008A3010008A3010008B0
:1000A000A3010008A3010008A3010008A3010008A0
:1000B000A3010008ED090008A3010008A30100083E
:1000C000A3010008A3010008A3010008A301000880
:1000D000A3010008A3010008A3010008A301000870
:1000E000A3010008A3010008A301000800F002F822
:1000F00000F03AF80AA090E8000C82448344AAF188
:100100000107DA4501D100F02FF8AFF2090EBAE885
:100110000F0013F0010F18BFFB1A43F0010318473B
:10012000700C0000900C0000103A24BF78C878C111
:10013000FAD8520724BF30C830C144BF04680C60ED
:10014000704700000023002400250026103A28BF35
:1001500078C1FBD8520728BF30C148BF0B60704739
:100160001FB51FBD10B510BD00F031F81146FFF7E7
:10017000F7FF00F0B5FD00F04FF803B4FFF7F2FF12
:1001800003BC00F053F800000948804709480047C5
:10019000FEE7FEE7FEE7FEE7FEE7FEE7FEE7FEE737
:1001A000FEE7FEE704480549054A064B7047000094
:1001B0008D090008ED0000085801002058070020B4
:1001C0005803002058030020704770477047754659
:1001D00000F028F8AE4605006946534620F00700B7
:1001E000854618B020B5FFF7DDFFBDE820404FF091
:1001F00000064FF000074FF000084FF0000B21F011
:100200000701AC46ACE8C009ACE8C009ACE8C009DD
:10021000ACE8C0098D4670470446AFF30080204625
:10022000FFF7ABFF00487047F80000200149182095
:10023000ABBEFEE726000200704700BFFEE70000ED
:1002400000F0805111B10349086001E002494860A3
:1002500070470000040402400000024021B102681F
:1002600042F00102026004E002684FF6FE731A4099
:100270000260704701684FF6FE7211400160002174
:10028000016041608160C1604B49884208D14A49A0
:100290000839496841F00F01474A083A51608AE03D
:1002A00045491431884208D143490839496841F029
:1002B000F001414A083A51607DE03F4928318842C7
:1002C00008D13D490839496841F470613A4A083A11
:1002D000516070E038493C31884208D136490839CC
:1002E000496841F47041344A083A516063E0324948
:1002F0005031884208D130490839496841F47021A9
:100300002D4A083A516056E02B496431884208D1A1
:1003100029490839496841F47001274A083A51606F
:1003200049E025497831884208D12349083949688C
:1003300041F07061204A083A51603CE01F49884210
:1003400006D1011F096841F00F01021F116032E060
:100350001A491431884208D11849091F096841F027
:10036000F001164A121F116025E014492831884215
:1003700008D11249091F096841F470610F4A121F20
:10038000116018E00D493C31884208D10B49091F22
:10039000096841F47041094A121F11600BE00749D6
:1003A0005031884207D10549091F096841F470217D
:1003B000024A121F11607047080002400804024000
:1003C00001460020002201F0805313B1054B1A684A
:1003D00001E0054B1A6802EA01030BB1012000E0BD
:1003E00000207047000402400000024010B50022C7
:1003F000026847F6F0739A430C6A8B6823430C69D2
:1004000023434C6923438C692343CC6923434C6ABF
:1004100023438C6A23431A430260CB6843600B6812
:1004200083604B68C36010BD4160704770472DE921
:10043000F04102460025002600200023002400276A
:1004400091F803C00CF00F0591F803C00CF0100CEC
:10045000BCF1000F03D091F802C04CEA050591F8F9
:1004600000C0BCF1000F31D0146800202BE04FF029
:10047000010C0CFA00F3B1F800C00CEA03069E422E
:1004800020D183004FF00F0C0CFA03F7BC4305FAA0
:1004900003FC4CEA040491F803C0BCF1280F06D118
:1004A0004FF0010C0CFA00FCC2F814C00AE091F8FD
:1004B00003C0BCF1480F05D14FF0010C0CFA00FC51
:1004C000C2F810C0401C0828D1D31460B1F800C095
:1004D000BCF1FF0F34DD546800202EE000F1080C61
:1004E0004FF0010808FA0CF3B1F800C00CEA03065B
:1004F0009E4221D183004FF00F0C0CFA03F7BC434E
:1005000005FA03FC4CEA040491F803C0BCF1280F7F
:1005100005D100F1080C08FA0CF8C2F8148091F823
:1005200003C0BCF1480F07D100F1080C4FF00108DF
:1005300008FA0CF8C2F81080401C0828CED354608A
:10054000BDE8F08100BFFEE708B50121102000F0F2
:1005500017F910208DF803004002ADF800000320C9
:100560008DF8020069460A48FFF761FF0121082063
:1005700000F006F910208DF803000120ADF800000E
:1005800003208DF8020069460248FFF750FF08BDBE
:1005900000100140000C0140F0B58BB007460D463D
:1005A00016461C460121084600F0CAF83846FFF7F7
:1005B00061FE0C4804800394002002900A9001968A
:1005C00007908020059000200890009506900490E8
:1005D0004FF48050099069463846FFF707FF0BB08B
:1005E000F0BD00002C00002010B50446002120467C
:1005F000FFF734FE044801882046FFF715FF01216C
:100600002046FFF72BFE10BD2C00002000BFFEE7A8
:1006100000B587B0012144F2040000F0B1F81820C1
:100620008DF81B004FF40070ADF8180001208DF814
:100630001A0006A91D48FFF7FAFE04208DF81B00DA
:100640000002ADF8180001208DF81A0006A917481D
:10065000FFF7EDFE4FF4E13002900020ADF81400FA
:100660000C20ADF812000020ADF81000ADF80E001F
:10067000ADF80C0002A90E4800F09EFA01210C48CA
:1006800000F078FA01224021094800F07FFA252085
:100690008DF8040001208DF807008DF805008DF815
:1006A000060001A800F008F807B000BD00080140EE
:1006B000003801407047000070B5002100230F2270
:1006C000C47804B3154C246804F4E064C4F5E06411
:1006D000210AC1F10403CA40447804FA03F1847882
:1006E0001440214309010E4C0678A155047804F00A
:1006F0001F050124AC4005786D11AD0005F1E02522
:10070000C5F8004109E0047804F01F050124AC405D
:10071000044D0678761145F8264070BD0CED00E0DA
:1007200000E400E080E100E002490143024A116078
:10073000704700000000FA050CED00E07047000073
:1007400029B1064A52690243044B5A6104E0034A44
:1007500052698243014B5A61704700000010024009
:1007600029B1064AD2690243044BDA6104E0034A24
:10077000D2698243014BDA617047000000100240E9
:1007800029B1064A92690243044B9A6104E0034A84
:1007900092698243014B9A61704700000010024049
:1007A00030B500210022002400232D4D6D6805F096
:1007B0000C0121B1042905D0082923D105E0294DD8
:1007C000056022E0274D05601FE0254D6D6805F4AA
:1007D0007012234D6D6805F48034022505EB9242BA
:1007E0001CB9214D554305600BE01D4D6D6805F4A6
:1007F00000351DB11C4D5543056002E0194D5543B0
:10080000056002E0174D056000BF00BF144D6D6824
:1008100005F0F0010909154D6B5C0568DD40456088
:100820000F4D6D6805F4E061090A104D6B5C456879
:10083000DD4085600A4D6D6805F46051C90A0B4DB5
:100840006B5C4568DD40C560054D6D6805F4404151
:10085000890B074D6B5CC568B5FBF3F5056130BDD1
:100860000010024000127A0000093D00180000202C
:1008700028000020704710B500F002F810BD0000FD
:100880000CB50020019000903348006840F480309F
:100890003149086000BF3048006800F40030009023
:1008A0000198401C0190009818B90198B0F5A06F0C
:1008B000F1D12948006800F4003010B10120009007
:1008C00001E0002000900098012843D123480068EF
:1008D00040F01000214908600846006820F003003D
:1008E00008600846006840F0020008601A48406846
:1008F000194948600846406848600846406840F426
:10090000806048600846406820F47C1048600846D3
:10091000406840F4E81048600846006840F0807085
:10092000086000BF0C48006800F000700028F9D093
:100930000948406820F003000749486008464068BD
:1009400040F00200486000BF0348406800F00C001F
:100950000828F9D10CBD0000001002400020024020
:10096000042808D14FF0E021096941F004014FF05B
:10097000E022116107E04FF0E021096921F0040154
:100980004FF0E022116170477047000010B5134826
:10099000006840F0010011490860084640681049AD
:1009A00008400E494860084600680E4908400B4957
:1009B00008600846006820F4802008600846406807
:1009C00020F4FE0048604FF41F008860FFF753FFDB
:1009D0004FF000600449086010BD000000100240A4
:1009E0000000FFF8FFFFF6FE08ED00E010B5012162
:1009F000084800F052F858B10748006808B90120CB
:100A000000E00020044908600121024800F036F8A7
:100A100010BD000000040040B40122427FB505462D
:100A20000C4601210220FFF79BFE0020ADF80A00D2
:100A3000ADF80600ADF80850ADF8044001A90E4825
:100A400000F046F8012211460B4800F037F81D204F
:100A50008DF8000001208DF8030000208DF80100C2
:100A600003208DF802006846FFF726FE01210248A8
:100A700000F007F87FBD000000040040CA43028276
:100A8000704721B1028842F00102028004E002882E
:100A90004FF6FE731A400280704730B502460020C0
:100AA00000230024158A05EA0103958905EA01045B
:100AB00013B10CB1012000E0002030BD1AB18389D0
:100AC0000B43838102E083898B438381704700005D
:100AD000002202881D4B98420ED01D4B98420BD02D
:100AE000B0F1804F08D01B4B984205D01A4B98426A
:100AF00002D01A4B984204D14FF68F731A404B889C
:100B00001A43174B984207D0164B984204D04FF621
:100B1000FF431A40CB881A4302808B8883850B8859
:100B200003850A4B98420BD0094B984208D00E4BD4
:100B3000984205D00D4B984202D00D4B984201D1FE
:100B40000B7A03860123838270470000002C01404A
:100B5000003401400004004000080040000C004048
:100B600000100040001400400040014000440140DB
:100B70000048014021B1828942F40052828104E0A0
:100B800082894DF6FF731A40828170471AB1838AB9
:100B90000B43838202E0838A8B4383827047024641
:100BA0000020B1F5007F00D100BF13880B400BB1CE
:100BB000012000E0002070472DE9F04786B005468F
:100BC0000E460024A24600BFA1460027B08900B10E
:100BD00000BF2F462C8A4CF6FF700440F088044377
:100BE0002C82AC894EF6F3100440B088318908435A
:100BF000718908430443AC81AC8A4FF6FF4004403E
:100C0000B0890443AC8201A8FFF7CAFD1F488742A0
:100C100002D1DDF810A001E0DDF80CA0A88900F4F5
:100C2000004040B10AEBCA0000EB0A1031684900ED
:100C3000B0FBF1F807E00AEBCA0000EB0A103168DC
:100C40008900B0FBF1F86420B8FBF0F00401200942
:100C5000642101FB1089A88900F4004040B13220D2
:100C600000EBC900B0FBF1F000F00700044308E01E
:100C7000322000EB09106421B0FBF1F000F00F000E
:100C800004432C8106B0BDE8F08700000038014025
:100C9000C1F308028280704700BFFEE710B56FF015
:100CA0000400FFF75DFE0A4800680A49B0FBF1F056
:100CB000094908700846007800EB4001C1EBC010FC
:100CC0004FF6FF7101EAC0000449088010BD000022
:100CD0000000002000127A001400002016000020FE
:100CE00000244FF4A060FFF71FFDFFF7D7FFFFF7C9
:100CF0002BFC012022490860FFF78AFC0823214AC7
:100D000021492248FFF748FC39E02048FFF76CFCF6
:100D100009E04FF40030FFF753FB20B14FF40030EF
:100D2000FFF78EFA00E0F4E700BF01E0601CC4B2F8
:100D30001448005D5528F9D112480078AA281ED120
:100D40001048005D55281AD141F61F4140F2CF707E
:100D5000FFF764FE00250FE00A48415D0A48001FC6
:100D6000FFF796FF00BF40210748001FFFF717FF5E
:100D70000128F8D1681CC5B2A542EDDD0024C4E706
:100D8000B4012242300000200438014058000240E3
:100D9000B00D00080000002030000000280100080D
:100DA000E00D000830000020280700004401000882
:100DB00000A24A0400000000000000000102030439
:100DC00006070809000000000000000001020304FB
:100DD00001020304060708090204060800000000D7
:040000050800018965
:00000001FF
