:020000040800F2
:100000004807002089010008D90300084D030008B3
:10001000D5030008310200082B0900080000000089
:10002000000000000000000000000000CD060008F5
:100030003502000800000000A9060008E1070008DA
:10004000A3010008A3010008A3010008A301000800
:10005000A3010008A3010008A3010008A3010008F0
:10006000A3010008A3010008A3010008A3010008E0
:10007000A3010008A3010008A3010008A3010008D0
:10008000A3010008A3010008A3010008A3010008C0
:10009000A3010008A3010008A3010008A3010008B0
:1000A000A3010008A3010008A3010008A3010008A0
:1000B000A3010008A3010008A3010008A301000890
:1000C000A3010008A3010008A3010008A301000880
:1000D000A301000845080008A3010008A3010008C7
:1000E000A3010008A3010008A301000800F002F822
:1000F00000F03AF80AA090E8000C82448344AAF188
:100100000107DA4501D100F02FF8AFF2090EBAE885
:100110000F0013F0010F18BFFB1A43F0010318473B
:10012000C0150000E0150000103A24BF78C878C15F
:10013000FAD8520724BF30C830C144BF04680C60ED
:10014000704700000023002400250026103A28BF35
:1001500078C1FBD8520728BF30C148BF0B60704739
:100160001FB51FBD10B510BD00F033F81146FFF7E5
:10017000F7FF00F07FFC00F051F803B4FFF7F2FF47
:1001800003BC00F005FC000009488047094800470F
:10019000FEE7FEE7FEE7FEE7FEE7FEE7FEE7FEE737
:1001A000FEE7FEE704480549054A064B7047000094
:1001B000E5070008ED00000848010020480700207E
:1001C000480300204803002070477047704770477D
:1001D0007047754600F028F8AE460500694653465C
:1001E00020F00700854618B020B5FFF7DBFFBDE81B
:1001F00020404FF000064FF000074FF000084FF08E
:10020000000B21F00701AC46ACE8C009ACE8C0091E
:10021000ACE8C009ACE8C0098D4670470446AFF3AE
:1002200000802046FFF7A9FF00487047E800002043
:1002300000BFFEE770472DE9F04102460025002689
:10024000002000230024002791F803C00CF00F05C4
:1002500091F803C00CF0100CBCF1000F03D091F822
:1002600002C04CEA050591F800C0BCF1000F31D086
:10027000146800202BE04FF0010C0CFA00F3B1F8E9
:1002800000C00CEA03069E4220D183004FF00F0C01
:100290000CFA03F7BC4305FA03FC4CEA040491F89A
:1002A00003C0BCF1280F06D14FF0010C0CFA00FC82
:1002B000C2F814C00AE091F803C0BCF1480F05D1A0
:1002C0004FF0010C0CFA00FCC2F810C0401C0828CA
:1002D000D1D31460B1F800C0BCF1FF0F34DD546815
:1002E00000202EE000F1080C4FF0010808FA0CF392
:1002F000B1F800C00CEA03069E4221D183004FF002
:100300000F0C0CFA03F7BC4305FA03FC4CEA040497
:1003100091F803C0BCF1280F05D100F1080C08FAD0
:100320000CF8C2F8148091F803C0BCF1480F07D153
:1003300000F1080C4FF0010808FA0CF8C2F8108020
:10034000401C0828CED35460BDE8F08100BFFEE712
:1003500010B50120074908600749C1F8B80100F04D
:1003600063FB00200349091F08600349C1F8BC0171
:1003700010BD0000BC0122420000224210B5002046
:10038000074908600749C1F8B801012000F04CFB9B
:100390000120034908600349C1F8B80110BD0000FD
:1003A000BC0122420000224208B50121102000F0C9
:1003B0007DF910208DF803004002ADF80000032005
:1003C0008DF8020069460248FFF735FF08BD0000BE
:1003D0000010014000BFFEE7704770B506460024DC
:1003E00015E004F1B001C8B200F03EF9012000F0C0
:1003F0003BF9102000F038F9002504E0304600F009
:1004000043F9681CC5B2802DF8DB601CC4B2082C0F
:10041000E7DB70BD08B50121102000F047F94FF46B
:100420004040ADF8000010208DF8030003208DF847
:10043000020069460448FFF7FEFE012003490860F8
:100440000349C1F8BC0108BD00100140B8012242B7
:100450000000224210B54FF4FA7000F0BFFAAE204F
:1004600000F002F9002000F0FFF8102000F0FCF886
:10047000402000F0F9F8812000F0F6F8CF2000F0DD
:10048000F3F8A12000F0F0F8C82000F0EDF8A62065
:1004900000F0EAF8A82000F0E7F83F2000F0E4F8C8
:1004A000D32000F0E1F8002000F0DEF8D52000F0C5
:1004B000DBF8802000F0D8F8D92000F0D5F8F12042
:1004C00000F0D2F8DA2000F0CFF8122000F0CCF8DB
:1004D000DB2000F0C9F8402000F0C6F8202000F032
:1004E000C3F8022000F0C0F88D2000F0BDF8142001
:1004F00000F0BAF8A42000F0B7F8A62000F0B4F895
:10050000AF2000F0B1F80020FFF767FF0021084698
:1005100000F001F810BD70B504460D4605F1B001BC
:10052000C8B200F0A1F8102141EA141000F09CF8C4
:1005300004F00F0141F0010000F096F870BD0000DA
:100540002DE9F04780460E4691461F4600250024BF
:10055000A9F12000C5B2B8F17F0F02DDA046B01CA2
:10056000C6B2102F22D131464046FFF7D4FF0024F7
:1005700007E004EB0511184A505C00F085F8601C98
:10058000C4B2082CF5DB701CC1B24046FFF7C3FFB4
:10059000002408E004EB051108310F4A505C00F01C
:1005A00073F8601CC4B2082CF4DB13E0082F11D1DF
:1005B00031464046FFF7AFFF002409E005EB450157
:1005C000064A02EB4101085D00F05EF8601CC4B20F
:1005D000062CF3DBBDE8F087EE100008C60E00081D
:1005E0002DE9FF5F074691461E460E9D4FF0000A1B
:1005F000002435E0301B401EC1B20A2000F058FA3A
:10060000B9FBF0F00A21B0FBF1F201FB1208BAF1DC
:10061000000F14D1701EA04211DDB8F1000F0CD1F3
:10062000AB4605EBDB71491001FB0471C8B22B46E8
:1006300020220199FFF784FF10E04FF0010AAB463A
:1006400005EBDB71491001FB0471C8B208F1300100
:10065000CAB22B460199FFF773FF00BF601CC4B2FA
:10066000B442C7DBBDE8FF9F10B50446FFF770FE3C
:10067000782000F05DF9002000F05AF9204600F0E3
:1006800057F9FFF77BFE10BD10B50446FFF760FE7B
:10069000782000F04DF9402000F04AF9204600F0A3
:1006A00047F9FFF76BFE10BD7047000029B1064AFD
:1006B00092690243044B9A6104E0034A92698243BF
:1006C000014B9A617047000000100240704710B55E
:1006D00000F002F810BD00000CB500200190009061
:1006E0003348006840F480303149086000BF30482A
:1006F000006800F4003000900198401C01900098C0
:1007000018B90198B0F5A06FF1D12948006800F43C
:10071000003010B10120009001E00020009000980E
:10072000012843D12348006840F0100021490860A7
:100730000846006820F0030008600846006840F0A2
:10074000020008601A484068194948600846406835
:1007500048600846406840F4806048600846406849
:1007600020F47C1048600846406840F4E810486077
:100770000846006840F08070086000BF0C480068C0
:1007800000F000700028F9D00948406820F003000C
:10079000074948600846406840F00200486000BFD2
:1007A0000348406800F00C000828F9D10CBD000097
:1007B0000010024000200240042808D14FF0E02140
:1007C000096941F004014FF0E022116107E04FF0A8
:1007D000E021096921F004014FF0E0221161704726
:1007E0007047000010B51348006840F0010011493F
:1007F000086008464068104908400E4948600846AD
:1008000000680E4908400B4908600846006820F45B
:10081000802008600846406820F4FE0048604FF4DD
:100820001F008860FFF753FF4FF000600449086025
:1008300010BD0000001002400000FFF8FFFFF6FEB0
:1008400008ED00E010B540F225511D4800F03EF8DB
:1008500010B31B4800F064F8C4B21A48008800F4D2
:100860000040C8B91748008800F4804060B10A2CE5
:1008700003D000201349088020E01248008840F48B
:1008800000401049088019E00D2C06D10D48008861
:1008900040F480400B49088010E00A480088C0F30B
:1008A0000D0009490C5407480088401C0549088080
:1008B00008460088C72801DD0020088010BD000020
:1008C000003801401C0000202000002070B50246C6
:1008D000002400230025002040F66A16B14200D112
:1008E00000BFC1F3421501F01F03012606FA03F30E
:1008F000012D02D19689334006E0022D02D1168ADD
:10090000334001E0968A33400C12012606FA04F4C3
:100910001688344013B10CB1012000E0002070BDF6
:1009200001468888C0F30800704700BFFEE700005A
:1009300070B50446002517E004F0800018B10120CE
:100940001149086002E000200F49086001200E49AB
:10095000091D086000F068F800200C49C1F8BC01CE
:100960006006040E681CC5B2082DE5DB01200649AF
:1009700008600649C1F8BC0100F056F800200249A1
:10098000091D086070BD0000B8012242000022422B
:10099000014600BF7047000010B56FF00400FFF77C
:1009A0000BFF0A4800680A49B0FBF1F009490870DA
:1009B0000846007800EB4001C1EBC0104FF6FF7114
:1009C00001EAC0000449088010BD000000000020BA
:1009D00000127A0014000020160000200146114A7F
:1009E00012884A434FF0E0235A6100229A611A4666
:1009F000126942F001021A6100BF4FF0E022106953
:100A000000F001021AB100F48032002AF5D04FF054
:100A1000E022126922F001024FF0E0231A61002265
:100A20009A617047160000200146114A12784A4325
:100A30004FF0E0235A6100229A611A46126942F08F
:100A400001021A6100BF4FF0E022106900F00102BC
:100A50001AB100F48032002AF5D04FF0E02212697A
:100A600022F001024FF0E0231A6100229A617047E0
:100A70001400002008B5FFF78FFFFFF795FCFFF784
:100A8000C9FCFFF7E7FC102003237B220021009024
:100A90000A20FFF7A5FD07E00448006808B9012017
:100AA00000E0002001490860F6E70000B40122429E
:100AB00010B50246012000E050430B00A1F10104F3
:100AC000E1B2F9D110BD00000000000000000000FC
:100AD0000000000000000000000000000000000016
:100AE000000000000000000202FAFAAAAAFFFFAA12
:100AF000AAFAFA020200004272723A7A424B5B5240
:100B0000626213776600203C1CFFFFB0B424243FD0
:100B10003FE4E4242420020203FFFF0001051D59E5
:100B2000C1FF7F010101000000F8F8484C4F4B4A1B
:100B30004848F8F80000000000FFFF4444444444E3
:100B40004444FFFF0000202424E4E4242424301043
:100B5000FFFF10F0F000081C1F0B0C0D4F6E341C33
:100B60000F23607F3F0080C060F8FF070200FFFF97
:100B7000E0703C1C08000000007F7F0406033F7FFC
:100B800040404078780000000000000000000000B5
:100B90000000000000000000000000000000000055
:100BA0000000000000000000000000000000000045
:100BB0000000000000000000000000000000000035
:100BC00000000000000010218670007E4A4A4A4A58
:100BD0004A7E0000000002FE01407F41417F41410A
:100BE0007F41417F40000000FC042424FCA5A6A412
:100BF000FC242424040080601F808042462A1212B4
:100C00002A2642C04000080808FF88480098482863
:100C10000A2C48D808000242817F0000404242422C
:100C20007E424242400000504F4A48FF4848480038
:100C3000FC0000FF000000003F0101FF21613F00B8
:100C40000F40807F000000908CA4A4A4A5A6A4A4BB
:100C5000A4A4948C04000080402018070000003FEA
:100C6000404040700000000474D4FFD47404100CA1
:100C7000B744B40C04000042437A4342437E4B4BDA
:100C80004A4A42430100080808080808F94A4C4843
:100C900048C808080800404020100C03000020400D
:100CA000403F0000000000202C246474ADA6E43412
:100CB00024242C2400000024242515150DFE040DE9
:100CC000171424642400000000F848484C4B4A489C
:100CD0004848F8000000000000FF444444444444F5
:100CE0004444FF000000202424E424242420101085
:100CF000FF1010F00000081C0B080C054E24100C0F
:100D00000320403F0000080808FF88480098482852
:100D10000A2C48D808000242817F0000404242422B
:100D20007E424242400000504F4A48FF4848480037
:100D3000FC0000FF000000003F0101FF21613F00B7
:100D40000F40807F00000807FAAAAEAAAAA8ACABA1
:100D5000AAFE0A02020008088B6A1E0A0A0A0AFE94
:100D60000A0B08080800106001C63000101010FFC0
:100D70001010101000000404FE01004161514D43A9
:100D8000414151E101004041CE04008040BE8282D9
:100D900082BEC040400000007F20908040432C1065
:100DA000102C43C0400020212EE4000020202020F1
:100DB000FF20202020000000007F201008000000FD
:100DC000FF00000000000000F848484848FF48487D
:100DD0004848F800000000000F040404043F4444A5
:100DE00044444F40700000000202020202E2120A74
:100DF000060200800000010101010141817F010123
:100E00000101010101000020202222E2222222E22F
:100E1000222222202000004020100C030000003F6E
:100E20004040404070004020F80F82601E1410FFC8
:100E30001010101000000000FF000101010101FF6F
:100E4000010101010100000000007E4848484848B7
:100E5000484848CC080000040404040404040424A2
:100E60004644201F0000849494FF949480242424FA
:100E7000FC1213120000201806FF021C0A020202D4
:100E80003F41414171001010D0FE509000101010F1
:100E9000D0FE10101000080601FF000110080443E6
:100EA000807F000000009088A7A2A6BAA2F8A7A29F
:100EB000A6BAA282800000040404040C3404448412
:100EC0007F04040400000000000000000000002F68
:100ED000000000000700070000147F147F140024A6
:100EE0002A7F2A12006264081323003649552250D3
:100EF00000000503000000001C2241000000412208
:100F00001C000014083E08140008083E08080000F1
:100F100000A06000000808080808000060600000E9
:100F2000002010080402003E5149453E0000427F67
:100F30004000004261514946002141454B310018B3
:100F400014127F10002745454539003C4A49493075
:100F5000000171090503003649494936000649492F
:100F6000291E00003636000000005636000000083A
:100F70001422410000141414141400004122140817
:100F800000020151090600324959513E007C1211FC
:100F9000127C007F49494936003E41414122007F91
:100FA0004141221C007F49494941007F090909014B
:100FB000003E4149497A007F0808087F0000417FD0
:100FC0004100002040413F01007F08142241007F82
:100FD00040404040007F020C027F007F0408107FE9
:100FE000003E4141413E007F09090906003E415152
:100FF000215E007F0919294600464949493100010F
:10100000017F0101003F4040403F001F2040201F62
:10101000003F4038403F0063140814630007087025
:10102000080700615149454300007F4141000055D8
:101030002A552A55000041417F00000402010204A4
:101040000040404040400000010204000020545491
:101050005478007F484444380038444444200038E1
:101060004444487F00385454541800087E09010253
:101070000018A4A4A47C007F080404780000447D28
:101080004000004080847D00007F10284400000064
:10109000417F4000007C04180478007C0804047838
:1010A00000384444443800FC242424180018242424
:1010B00018FC007C08040408004854545420000420
:1010C0003F444020003C4040207C001C2040201C2D
:1010D000003C4030403C004428102844001CA0A0A4
:1010E000A07C004464544C441414141414140000E0
:1010F00000000000000000000000000000000000F0
:1011000000F8000000000000003330000000001074
:101110000C06100C0600000000000000000040C09B
:101120007840C0784000043F04043F04040000708D
:1011300088FC08300000001820FF211E0000F00885
:10114000F000E018000000211C031E211E0000F02A
:101150000888700000001E21232419272110101672
:101160000E00000000000000000000000000000071
:1011700000E01804020000000007182040000002F0
:101180000418E00000000040201807000000404064
:1011900080F0804040000202010F010202000000C6
:1011A00000F0000000000101011F0101010000002A
:1011B00000000000000080B070000000000000008F
:1011C0000000000000000001010101010101000018
:1011D00000000000000000303000000000000000AF
:1011E000000080601804006018060100000000E0A4
:1011F00010080810E000000F102020100F00001051
:1012000010F8000000000020203F202000000070A7
:10121000080808887000003028242221300000309F
:101220000888884830000018202020110E00000097
:10123000C02010F8000000070424243F240000F818
:101240000888880808000019212020110E0000E0FD
:10125000108888180000000F112020110E0000389F
:101260000808C83808000000003F000000000070B7
:10127000880808887000001C222121221C0000E040
:1012800010080810E0000000312222110F000000B9
:1012900000C0C0000000000000303000000000006E
:1012A00000800000000000008060000000000000DE
:1012B0008040201008000001020408102000404077
:1012C00040404040400004040404040404000008BA
:1012D000102040800000002010080402010000706F
:1012E00048080808F0000000003036010000C03057
:1012F000C828E810E0000718272423140B0000007A
:10130000C038E0000000203C23020227382008F803
:10131000888888700000203F202020110E00C030F7
:10132000080808083800071820202010080008F8CE
:1013300008080810E000203F202020100F0008F8C7
:101340008888E8081000203F20202320180008F893
:101350008888E8081000203F200003000000C0300B
:1013600008080838000007182020221E020008F88C
:1013700008000008F808203F210101213F20000853
:1013800008F8080800000020203F2020000000008E
:101390000808F8080800C08080807F00000008F876
:1013A00088C028180800203F20012638200008F8AF
:1013B000080000000000203F20202020300008F816
:1013C000F800F8F80800203F003F003F200008F830
:1013D00030C00008F808203F200007183F00E01048
:1013E00008080810E0000F10202020100F0008F857
:1013F00008080808F000203F210101010000E0106A
:1014000008080810E0000F18242438504F0008F88E
:10141000888888887000203F2000030C30200070EE
:101420008808080838000038202121221C001808EC
:1014300008F8080818000000203F2000000008F805
:1014400008000008F808001F202020201F0008784E
:10145000880000C83808000007380E010000F808AE
:1014600000F80008F800033C0700073C03000818D8
:1014700068808068180820302C03032C302008383E
:10148000C800C83808000000203F200000001008F5
:101490000808C8380800203826212020180000003D
:1014A00000FE020202000000007F40404000000CED
:1014B00030C000000000000000010638C00000023B
:1014C0000202FE000000004040407F0000000000DB
:1014D00004020202040000000000000000000000FE
:1014E00000000000000080808080808080800002FA
:1014F00002040000000000000000000000000000E6
:101500008080808000000019242222223F2008F8D9
:10151000008080000000003F112020110E0000001C
:10152000008080800000000E1120202011000000AB
:1015300000808088F800000E112020103F2000005D
:10154000808080800000001F222222221300008061
:1015500080F0888888180020203F202000000000AC
:10156000808080808000006B94949493600008F8E1
:10157000008080800000203F210000203F2000806C
:101580009898000000000020203F2020000000006C
:1015900000809898000000C08080807F000008F8DC
:1015A000000080808000203F24022D3020000008B1
:1015B00008F8000000000020203F2020000080806C
:1015C000808080808000203F20003F20003F80807E
:1015D000008080800000203F210000203F2000008C
:1015E000808080800000001F202020201F0080803D
:1015F00000808000000080FFA12020110E0000006C
:10160000008080808000000E112020A0FF8080805C
:1016100080008080800020203F2120000100000009
:1016200080808080800000332424242419000080DE
:1016300080E0808000000000001F202000008080EB
:10164000000000808000001F202020103F208080AC
:1016500080000080808000010E300806010080803C
:101660000080008080800F300C030C300F00008061
:101670008000808080000020312E0E31200080808C
:1016800080000080808080818E70180601000080BC
:101690008080808080000021302C222130000000DA
:1016A0000000807C020200000000003F404000007B
:1016B0000000FF00000000000000FF00000000022A
:1016C000027C800000000040403F00000000000657
:1016D00001010202040400000000000000000000FC
:1016E000001700080000002020000000280100086A
:1016F00020170008200000202807000044010008EF
:1017000000A24A04000000000000000001020304DF
:1017100006070809000000000000000000000000AB
:040000050800018965
:00000001FF
