:020000040800F2
:1000000028080020CD010008E90300089503000836
:10001000E5030008750200087B0A000800000000E4
:10002000000000000000000000000000C9050008FA
:10003000790200080000000071040008DD060008D5
:10004000E7010008E7010008E7010008E7010008F0
:10005000E7010008E7010008E7010008E7010008E0
:10006000E7010008E7010008E7010008E7010008D0
:10007000E7010008E7010008E7010008E7010008C0
:10008000E7010008E7010008E7010008E7010008B0
:10009000E7010008E7010008E7010008E7010008A0
:1000A000E7010008E7010008E7010008E701000890
:1000B000E7010008E7010008E7010008E701000880
:1000C000E7010008E7010008E7010008E701000870
:1000D000E701000841070008C9070008E701000818
:1000E000E7010008E7010008E7010008E701000850
:1000F000E7010008E7010008E7010008E701000840
:10010000E7010008E7010008E7010008E70100082F
:10011000E7010008E7010008E7010008E70100081F
:10012000E7010008E7010008E7010008E70100080F
:1001300000F002F800F03AF80AA090E8000C8244BF
:100140008344AAF10107DA4501D100F02FF8AFF29C
:10015000090EBAE80F0013F0010F18BFFB1A43F0A5
:10016000010318475C0A00007C0A0000103A24BF13
:1001700078C878C1FAD8520724BF30C830C144BF0C
:1001800004680C607047000000230024002500264E
:10019000103A28BF78C1FBD8520728BF30C148BFEA
:1001A0000B6070471FB51FBD10B510BD00F033F8D0
:1001B0001146FFF7F7FF00F087FC00F051F803B499
:1001C000FFF7F2FF03BC00F05AFC0000094880472B
:1001D00009480047FEE7FEE7FEE7FEE7FEE7FEE729
:1001E000FEE7FEE7FEE7FEE704480549054A064B41
:1001F00070470000E10600083101000828020020D5
:100200002808002028040020280400207047704798
:10021000704770477047754600F028F8AE460500F5
:100220006946534620F00700854618B020B5FFF711
:10023000DBFFBDE820404FF000064FF000074FF015
:1002400000084FF0000B21F00701AC46ACE8C009F4
:10025000ACE8C009ACE8C009ACE8C0098D467047FD
:100260000446AFF300802046FFF7A9FF004870471F
:10027000C801002000BFFEE770472DE9F0410246AB
:1002800000250026002000230024002791F803C049
:100290000CF00F0591F803C00CF0100CBCF1000F2E
:1002A00003D091F802C04CEA050591F800C0BCF1FA
:1002B000000F31D0146800202BE04FF0010C0CFA35
:1002C00000F3B1F800C00CEA03069E4220D183007F
:1002D0004FF00F0C0CFA03F7BC4305FA03FC4CEA91
:1002E000040491F803C0BCF1280F06D14FF0010CB3
:1002F0000CFA00FCC2F814C00AE091F803C0BCF18B
:10030000480F05D14FF0010C0CFA00FCC2F810C0E8
:10031000401C0828D1D31460B1F800C0BCF1FF0F15
:1003200034DD546800202EE000F1080C4FF0010885
:1003300008FA0CF3B1F800C00CEA03069E4221D182
:1003400083004FF00F0C0CFA03F7BC4305FA03FCD3
:100350004CEA040491F803C0BCF1280F05D100F168
:10036000080C08FA0CF8C2F8148091F803C0BCF12C
:10037000480F07D100F1080C4FF0010808FA0CF8FB
:10038000C2F81080401C0828CED35460BDE8F0812C
:100390000161704700BFFEE708B50121482000F069
:1003A00089F82020ADF8000010208DF8030003200C
:1003B0008DF8020069460948FFF75FFF20210748D2
:1003C000FFF7E6FF2020ADF8000069460448FFF77C
:1003D00054FF20210248FFF7DBFF08BD000C01405D
:1003E0000018014000BFFEE77047000070B5002113
:1003F00000230F22C47804B3154C246804F4E0648D
:10040000C4F5E064210AC1F10403CA40447804FA47
:1004100003F184781440214309010E4C0678A1555C
:10042000047804F01F050124AC4005786D11AD007F
:1004300005F1E025C5F8004109E0047804F01F0546
:100440000124AC40044D0678761145F8264070BD75
:100450000CED00E000E400E080E100E0024901432F
:10046000024A1160704700000000FA050CED00E040
:100470007047000029B1064AD2690243044BDA6191
:1004800004E0034AD2698243014BDA6170470000FD
:100490000010024029B1064A12690243044B1A6156
:1004A00004E0034A12698243014B1A61704700005D
:1004B0000010024029B1064A92690243044B9A6136
:1004C00004E0034A92698243014B9A61704700003D
:1004D0000010024029B1064AD2680243044BDA6098
:1004E00004E0034AD2688243014BDA60704700009F
:1004F0000010024030B500210022002400232D4DC1
:100500006D6805F00C0121B1042905D0082923D11B
:1005100005E0294D056022E0274D05601FE0254DCF
:100520006D6805F47012234D6D6805F48034022562
:1005300005EB92421CB9214D554305600BE01D4D62
:100540006D6805F400351DB11C4D5543056002E092
:10055000194D5543056002E0174D056000BF00BF0F
:10056000144D6D6805F0F0010909154D6B5C0568C7
:10057000DD4045600F4D6D6805F4E061090A104DDE
:100580006B5C4568DD4085600A4D6D6805F460511F
:10059000C90A0B4D6B5C4568DD40C560054D6D6853
:1005A00005F44041890B074D6B5CC568B5FBF3F55D
:1005B000056130BD0010024000127A0000093D00C4
:1005C0002200002032000020704710B500F002F831
:1005D00010BD00000CB50020019000903348006869
:1005E00040F480303149086000BF3048006800F4B2
:1005F000003000900198401C0190009818B90198B3
:10060000B0F5A06FF1D12948006800F4003010B1B6
:100610000120009001E0002000900098012843D1C3
:100620002348006840F0100021490860084600682F
:1006300020F0030008600846006840F002000860EF
:100640001A484068194948600846406848600846AA
:10065000406840F4806048600846406820F47C10A0
:1006600048600846406840F4E81048600846006862
:1006700040F08070086000BF0C48006800F0007017
:100680000028F9D00948406820F003000749486075
:100690000846406840F00200486000BF03484068D8
:1006A00000F00C000828F9D10CBD00000010024039
:1006B00000200240042808D14FF0E021096941F0F0
:1006C00004014FF0E022116107E04FF0E0210969D9
:1006D00021F004014FF0E0221161704770470000E3
:1006E00010B51348006840F0010011490860084641
:1006F0004068104908400E494860084600680E49A5
:1007000008400B4908600846006820F48020086013
:100710000846406820F4FE0048604FF41F008860DF
:10072000FFF753FF4FF000600449086010BD000060
:10073000001002400000FFF8FFFFF6FE08ED00E0A9
:1007400010B540F225511D4800F0D6F810B31B48F3
:1007500000F08EF9C4B21A48008800F40040C8B90D
:100760001748008800F4804060B10A2C03D00020B4
:100770001349088020E01248008840F400401049E6
:10078000088019E00D2C06D10D48008840F4804007
:100790000B49088010E00A480088C0F30D000949A1
:1007A0000C5407480088401C05490880084600880A
:1007B000C72801DD0020088010BD0000003801407E
:1007C000200000200001002010B540F22551124801
:1007D00000F092F8F8B1104800F04AF9C4B20F489E
:1007E0000088C0F30E000E490C540C480088401CD1
:1007F0000A49088008460088C72801DD00200880D3
:100800000648008840F400400449088040F2255121
:10081000014800F007F810BD00440040140000201B
:100820003800002010B50022002340F66A14A142CF
:1008300000D100BF0A1201249440A3B2DC4304801B
:1008400010BD21B1828942F40052828104E0828984
:100850004DF6FF731A4082817047000010B50446C0
:100860002048844209D101218803FFF733FE00218B
:100870004FF48040FFF72EFE32E01B48844209D13E
:1008800001214804FFF706FE00214FF40030FFF776
:1008900001FE25E01548844209D101218804FFF7B3
:1008A000F9FD00214FF48020FFF7F4FD18E0104817
:1008B000844209D10121C804FFF7ECFD00214FF467
:1008C0000020FFF7E7FD0BE00A48844208D1012130
:1008D0000805FFF7DFFD00214FF48010FFF7DAFD78
:1008E00010BD0000003801400044004000480040B6
:1008F000004C00400050004070B502460024002328
:100900000025002040F66A16B14200D100BFC1F3B5
:10091000421501F01F03012606FA03F3012D02D14F
:100920009689334006E0022D02D1168A334001E059
:10093000968A33400C12012606FA04F416883440D5
:1009400013B10CB1012000E0002070BDF0B50346EA
:10095000002400260025002040F66A17B94200D185
:1009600000BF1846C1F3421401F01F06012707FA21
:1009700006F5012C01D10C3004E0022C01D110301D
:1009800000E014301AB107682F43076002E00768DF
:10099000AF430760F0BD00002DE9F04786B0054683
:1009A0000E460024A24600BFA1460027B08900B130
:1009B00000BF2F462C8A4CF6FF700440F088044399
:1009C0002C82AC894EF6F3100440B088318908437C
:1009D000718908430443AC81AC8A4FF6FF40044060
:1009E000B0890443AC8201A8FFF784FD1F48874209
:1009F00002D1DDF810A001E0DDF80CA0A88900F418
:100A0000004040B10AEBCA0000EB0A10316849000F
:100A1000B0FBF1F807E00AEBCA0000EB0A103168FE
:100A20008900B0FBF1F86420B8FBF0F00401200964
:100A3000642101FB1089A88900F4004040B13220F4
:100A400000EBC900B0FBF1F000F00700044308E040
:100A5000322000EB09106421B0FBF1F000F00F0030
:100A600004432C8106B0BDE8F08700000038014047
:100A700001468888C0F30800704700BFFEE70146C2
:100A800000BF704710B56FF00400FFF713FE0A486F
:100A900000680A49B0FBF1F009490870084600787F
:100AA00000EB4001C1EBC0104FF6FF7101EAC0003E
:100AB0000449088010BD00000000002000127A00E8
:100AC0001600002018000020FFF7DCFFFFF764FC91
:100AD0004FF4A060FFF7C2FC4FF4165000F01CF872
:100AE00013E00A48008800F4004070B1084800781C
:100AF000302807D10748006808B9012000E000202D
:100B000004490860002001490880EAE71400002039
:100B1000380000209401234210B586B0044601211C
:100B20000420FFF7C7FC01214804FFF7A3FC22487B
:100B3000FFF794FE18208DF817000420ADF814007C
:100B400003208DF8160005A91C48FFF796FB04202A
:100B50008DF817000820ADF8140005A91748FFF715
:100B60008CFB00940020ADF80400ADF80600ADF851
:100B70000800ADF80C000C20ADF80A0069460E48DC
:100B8000FFF70AFF26208DF8100001208DF81300D2
:100B900002208DF811008DF8120004A8FFF726FC42
:100BA000012240F225510448FFF7D0FE01210248FE
:100BB000FFF747FE06B010BD0044004000080140AA
:100BC000E00B000800000020380000006C01000865
:100BD000180C000838000020F00700008801000809
:100BE00000A24A040000000000000000010203040B
:100BF00006070809000000000000000000000000D7
:100C000000000000000001020304010203040607C3
:080C10000809020406080000B7
:04000005080001CD21
:00000001FF
