:020000040800F2
:1000000060070020D5010008450A000833060008F3
:10001000410A0008010500085F0F00080000000009
:10002000000000000000000000000000C50B0008F8
:100030000505000800000000CD0A0008D90C0008E2
:10004000EF010008EF010008EF010008EF010008D0
:10005000EF010008EF010008EF010008EF010008C0
:10006000EF010008EF010008EF010008EF010008B0
:10007000EF010008EF010008EF010008EF010008A0
:10008000EF010008EF010008EF010008EF01000890
:10009000EF010008EF010008EF010008EF01000880
:1000A000EF010008EF010008EF010008EF01000870
:1000B000EF010008EF010008EF010008EF01000860
:1000C000EF010008EF010008EF010008EF01000850
:1000D000EF0100083D0D0008EF010008EF010008E6
:1000E000EF010008EF010008EF010008EF01000830
:1000F000EF010008EF010008EF010008EF01000820
:10010000EF010008EF010008EF010008EF0100080F
:10011000EF010008EF010008EF010008EF010008FF
:10012000EF010008EF010008EF010008EF010008EF
:1001300000F002F800F03FF80AA090E8000C8244BA
:100140008344AAF10107DA4501D100F034F8AFF297
:10015000090EBAE80F0013F0010F18BFFB1A43F0A5
:1001600001031847C0100000E0100000103A24BF3F
:1001700078C878C1FAD8520724BF30C830C144BF0C
:1001800004680C607047000000230024002500264E
:10019000103A28BF78C1FBD8520728BF30C148BFEA
:1001A0000B607047732900F0B680002070471FB5C0
:1001B0001FBD10B510BD00F0E1F81146FFF7F7FFC5
:1001C00000F04EFF00F0FFF803B4FFF7F2FF03BCAE
:1001D00000F0C7FE0948804709480047FEE7FEE7F0
:1001E000FEE7FEE7FEE7FEE7FEE7FEE7FEE7FEE7E7
:1001F00004480549054A064B70470000DD0C00081D
:100200003101000860010020600700206003002029
:1002100060030020704700000FB4044910B503AA22
:10022000029800F07DF810BC5DF814FB1800002067
:100230002DE9F0410E460446002020622046E16888
:10024000884730B3252805D0D4E901219047206A9A
:10025000401CF2E7E168204600278847050018D0D7
:10026000A5F14100192802D820354FF40067324625
:10027000294620462760FFF795FF40B1012804D0AA
:10028000F61D26F007060836D8E7361DD6E72846BD
:10029000DAE7206ABDE8F08170B50C460546012A10
:1002A00005D02878800600D5EA69002302E0012302
:1002B00005E05B1C934202D2E05C0028F9D1A869FA
:1002C000E618C01AA861286A184428622846AFF3C5
:1002D000008004E0D5E9012114F8010B9047B442F5
:1002E000F8D32846AFF3008070BD70477047704761
:1002F000704710B5436913B1AFF3008001E0FFF719
:10030000CBFF012010BD127800F124010A700022F9
:100310004A700122EDE711684FF0FF32E9E7000073
:10032000074B70B50D467B4400F011F80446284693
:1003300000F020F810B14FF0FF3070BD204670BDC6
:100340001B0D000001694A1C02610878704700B566
:100350008FB0CDE901310021059105497944CDE9FE
:10036000031011466846FFF763FF0FB000BD0000A1
:10037000E5FFFFFF007B00F080007047754600F04E
:1003800029F8AE4605006946534620F00700854629
:1003900018B020B5FFF72CFFBDE820404FF0000655
:1003A0004FF000074FF000084FF0000B21F007015D
:1003B000AC46ACE8C009ACE8C009ACE8C009ACE8A0
:1003C000C0098D4670470446AFF300802046FFF712
:1003D000FBFE000000487047FC00002010B5FF2025
:1003E00000F028F80446552C01D1002010BD5521FD
:1003F000FF2000F05DF8FF2000F01CF80446552CAB
:1004000001D10020F2E70120F0E710B500F03CF93F
:1004100010BD70B506460C46154608E03046721C05
:1004200096B200F007F804F8010B681E85B2002DA3
:10043000F4D170BD70B50446002600F0DBF9254606
:10044000E11704EB11610912A02202EB4101C8B2CD
:1004500000F094F900F01CFAE11704EB11610912A5
:10046000A4EB0121C8B200F089F900F011FA00F004
:10047000C1F9A12000F082F900F00AFA002000F092
:1004800045F9064600F0DEF9304670BD70B5054608
:100490000C46164606E02178284600F009F8681C4C
:1004A00085B2641C3000A6F101018EB2F3D170BD9B
:1004B00070B504460E4600F09DF92546E11704EBA1
:1004C00011610912A02202EB4101C8B200F056F9F5
:1004D00000F0DEF9E11704EB11610912A4EB012130
:1004E000C8B200F04BF900F0D3F9304600F046F9FD
:1004F00000F0CEF900F0A6F90A2000F057FD70BD1B
:1005000000BFFEE770472DE9F041024600250026B6
:10051000002000230024002791F803C00CF00F05F1
:1005200091F803C00CF0100CBCF1000F03D091F84F
:1005300002C04CEA050591F800C0BCF1000F31D0B3
:10054000146800202BE04FF0010C0CFA00F3B1F816
:1005500000C00CEA03069E4220D183004FF00F0C2E
:100560000CFA03F7BC4305FA03FC4CEA040491F8C7
:1005700003C0BCF1280F06D14FF0010C0CFA00FCAF
:10058000C2F814C00AE091F803C0BCF1480F05D1CD
:100590004FF0010C0CFA00FCC2F810C0401C0828F7
:1005A000D1D31460B1F800C0BCF1FF0F34DD546842
:1005B00000202EE000F1080C4FF0010808FA0CF3BF
:1005C000B1F800C00CEA03069E4221D183004FF02F
:1005D0000F0C0CFA03F7BC4305FA03FC4CEA0404C5
:1005E00091F803C0BCF1280F05D100F1080C08FAFE
:1005F0000CF8C2F8148091F803C0BCF1480F07D181
:1006000000F1080C4FF0010808FA0CF8C2F810804D
:10061000401C0828CED35460BDE8F081024600207B
:1006200093680B400BB1012000E00020704701618E
:10063000704700BFFEE7000010B500200F490860BA
:100640000F48006820F070400D49086008460068B7
:1006500040F04050086000200A49C1F89C01022087
:1006600000F0CAFC012005490860022000F0C4FC2B
:1006700000200449C1F8980110BD00009881214272
:10068000000C01400080214208B50121082000F043
:100690001FFA10208DF80300C020ADF800000320E1
:1006A0008DF8020069460448FFF72DFFC02102487B
:1006B000FFF7BDFF08BD0000000C014010B5002091
:1006C0000F4908600F48006820F070400D4908602D
:1006D0000846006840F04050086001200A49C1F80F
:1006E0009C01022000F088FC0120054908600220DE
:1006F00000F082FC00200449C1F8980110BD000000
:1007000098812142000C01400080214270B50546CD
:1007100000241748006820F070401549086008461A
:10072000006840F000400860002616E000201149F3
:100730000860022000F060FC01200F49C1F8980118
:100740006006040E0B487C38006808B1601CC4B217
:10075000012000F051FC701CC6B2082EE6DB15B972
:10076000FFF7ACFF01E0FFF767FF204670BD000018
:10077000000C0140988121420080214270B504465E
:100780001948006820F07040174908600846006862
:1007900040F040500860002014490860002520E027
:1007A00004F08000C00120B101201049091D08603B
:1007B00003E000200D49091D08606006040E0220B8
:1007C00000F01AFC012009490860022000F014FC26
:1007D00000200749C1F89801022000F00DFC681CB8
:1007E000C5B2082DDCDB70BD000C014098812142B0
:1007F0000080214210B51048006820F070400E497A
:1008000008600846006840F04050086001200B492D
:1008100008600B49C1F89C01022000F0EDFB0020AC
:100820000649091D0860022000F0E6FB002004498B
:10083000C1F8980110BD0000000C014098812142D0
:100840000080214210B50F48006820F070400D492B
:1008500008600846006840F04050086000200A49DF
:1008600008600A49C1F89C01022000F0C5FB012084
:10087000054908600549C1F89C01022000F0BCFB55
:1008800010BD0000000C01409881214200802142EF
:1008900010B500241448006820F070401249086028
:1008A0000846006840F00040086001200F490860D9
:1008B00000F0A2FB01200E49C1F8980100F09CFB5A
:1008C00007E0601CC4B2FA2C03DDFFF7BBFF012078
:1008D00010BD0648803800680028F2D10349091F7E
:1008E000086000BFF4E70000000C01409C81214239
:1008F0000080214208B50121442000F0E9F81C20C5
:10090000ADF8000048208DF8030069460648FFF75F
:10091000FAFD0120ADF8000028208DF8030069469B
:100920000248FFF7F0FD08BD001801400008014033
:1009300010B5044614B101202C4908702B480078EA
:10094000002837D010212A48FFF768FE78B1082127
:100950002748FFF763FE50B104212548FFF75EFEEC
:1009600028B101212348FFF759FE012822D10A208E
:1009700000F01CFB00201D49087010211C48FFF7E7
:100980004DFE08B9012010BD08211948FFF746FEA9
:1009900008B90220F7E704211548FFF73FFE08B920
:1009A0000320F0E701211348FFF738FE01281BD18F
:1009B0000420E8E710210E48FFF730FE012813D18C
:1009C00008210B48FFF72AFE01280DD10421084811
:1009D000FFF724FE012807D101210648FFF71EFE7C
:1009E00010B90120014908700020CCE73200002036
:1009F000001801400008014008B52020ADF80000B3
:100A000003208DF8020010208DF8030001214820FA
:100A100000F05EF869460848FFF775FD202106489A
:100A2000FFF705FE69460548FFF76DFD20210348E5
:100A3000FFF7FDFD08BD0000000C0140001801405B
:100A400000BFFEE77047000070B5002100230F22B1
:100A5000C47804B3154C246804F4E064C4F5E0647D
:100A6000210AC1F10403CA40447804FA03F18478EE
:100A70001440214309010E4C0678A155047804F076
:100A80001F050124AC4005786D11AD0005F1E0258E
:100A9000C5F8004109E0047804F01F050124AC40CA
:100AA000044D0678761145F8264070BD0CED00E047
:100AB00000E400E080E100E002490143024A1160E5
:100AC000704700000000FA050CED00E070470000E0
:100AD00029B1064A92690243044B9A6104E0034A31
:100AE00092698243014B9A617047000000100240F6
:100AF00030B500210022002400232D4D6D6805F043
:100B00000C0121B1042905D0082923D105E0294D84
:100B1000056022E0274D05601FE0254D6D6805F456
:100B20007012234D6D6805F48034022505EB924266
:100B30001CB9214D554305600BE01D4D6D6805F452
:100B400000351DB11C4D5543056002E0194D55435C
:100B5000056002E0174D056000BF00BF144D6D68D1
:100B600005F0F0010909154D6B5C0568DD40456035
:100B70000F4D6D6805F4E061090A104D6B5C456826
:100B8000DD4085600A4D6D6805F46051C90A0B4D62
:100B90006B5C4568DD40C560054D6D6805F44041FE
:100BA000890B074D6B5CC568B5FBF3F5056130BD7E
:100BB0000010024000127A0000093D001E000020D3
:100BC0002E000020704710B500F002F810BD0000A4
:100BD0000CB50020019000903348006840F480304C
:100BE0003149086000BF3048006800F400300090D0
:100BF0000198401C0190009818B90198B0F5A06FB9
:100C0000F1D12948006800F4003010B101200090B3
:100C100001E0002000900098012843D1234800689B
:100C200040F01000214908600846006820F00300E9
:100C300008600846006840F0020008601A484068F2
:100C4000194948600846406848600846406840F4D2
:100C5000806048600846406820F47C104860084680
:100C6000406840F4E81048600846006840F0807032
:100C7000086000BF0C48006800F000700028F9D040
:100C80000948406820F0030007494860084640686A
:100C900040F00200486000BF0348406800F00C00CC
:100CA0000828F9D10CBD00000010024000200240CD
:100CB000042808D14FF0E021096941F004014FF008
:100CC000E022116107E04FF0E021096921F0040101
:100CD0004FF0E022116170477047000010B51348D3
:100CE000006840F00100114908600846406810495A
:100CF00008400E494860084600680E4908400B4904
:100D000008600846006820F48020086008464068B3
:100D100020F4FE0048604FF41F008860FFF753FF87
:100D20004FF000600449086010BD00000010024050
:100D30000000FFF8FFFFF6FE08ED00E010B540F2FE
:100D400025511D4800F04AF810B31B4800F002F985
:100D5000C4B21A48008800F40040C8B91748008897
:100D600000F4804060B10A2C03D0002013490880B1
:100D700020E01248008840F400401049088019E043
:100D80000D2C06D10D48008840F480400B490880A6
:100D900010E00A480088C0F30D0009490C540748C8
:100DA0000088401C0549088008460088C72801DDE6
:100DB0000020088010BD0000003801401C00002009
:100DC0003400002021B1828942F40052828104E083
:100DD00082894DF6FF731A408281704770B50246D2
:100DE000002400230025002040F66A16B14200D1FD
:100DF00000BFC1F3421501F01F03012606FA03F3F9
:100E0000012D02D19689334006E0022D02D1168AC7
:100E1000334001E0968A33400C12012606FA04F4AE
:100E20001688344013B10CB1012000E0002070BDE1
:100E3000F0B50346002400260025002040F66A177E
:100E4000B94200D100BF1846C1F3421401F01F0699
:100E5000012707FA06F5012C01D10C3004E0022C21
:100E600001D1103000E014301AB107682F43076039
:100E700002E00768AF430760F0BD00002DE9F047CE
:100E800086B005460E460024A24600BFA1460027B4
:100E9000B08900B100BF2F462C8A4CF6FF70044089
:100EA000F08804432C82AC894EF6F3100440B088DD
:100EB00031890843718908430443AC81AC8A4FF6F9
:100EC000FF400440B0890443AC8201A8FFF710FE44
:100ED0001F48874202D1DDF810A001E0DDF80CA028
:100EE000A88900F4004040B10AEBCA0000EB0A10E8
:100EF00031684900B0FBF1F807E00AEBCA0000EBEB
:100F00000A1031688900B0FBF1F86420B8FBF0F0FA
:100F100004012009642101FB1089A88900F4004024
:100F200040B1322000EBC900B0FBF1F000F0070047
:100F3000044308E0322000EB09106421B0FBF1F01B
:100F400000F00F0004432C8106B0BDE8F0870000DC
:100F50000038014001468888C0F30800704700BF90
:100F6000FEE7014600BF704710B56FF00400FFF7C1
:100F70009FFE0A4800680A49B0FBF1F00949087071
:100F80000846007800EB4001C1EBC0104FF6FF713E
:100F900001EAC0000449088010BD000000000020E4
:100FA00000127A0014000020160000200146114AA9
:100FB00012884A434FF0E0235A6100229A611A4690
:100FC000126942F001021A6100BF4FF0E02210697D
:100FD00000F001021AB100F48032002AF5D04FF07F
:100FE000E022126922F001024FF0E0231A61002290
:100FF0009A617047160000200146114A12784A4350
:101000004FF0E0235A6100229A611A46126942F0B9
:1010100001021A6100BF4FF0E022106900F00102E6
:101020001AB100F48032002AF5D04FF0E0221269A4
:1010300022F001024FF0E0231A6100229A6170470A
:101040001400002000BF054A128802F04002002A66
:10105000F9D0C2B2014B1B1D1A8070470038014005
:1010600086B04FF4A060FFF727FD4FF4E13000F0A9
:101070007DF8FFF7C1FCFFF777FFFFF73BFCFFF7B9
:1010800003FBFFF7C2F90EE01DA0FFF7C5F84FF410
:10109000FA70FFF78BFF2048006808B9012000E0D4
:1010A00000201D490860FFF799F90028ECD11BA02A
:1010B000FFF7B2F823E00020FFF73AFC0446042CC7
:1010C00007D116221A490020FFF7E0F919A0FFF70F
:1010D000A3F8012C08D1162269460020FFF799F9E0
:1010E00069461BA0FFF798F81F48006808B901205F
:1010F00000E000201C490860C820FFF757FFDAE72E
:101100000D0A323443303220436865636B204661F8
:10111000696C6564210D0A00948121420D0A323404
:10112000433032205265616479210D0A00000000CD
:101130000C1200080D0A32344330322057726974A1
:10114000652046696E6973686564210D0A000000B8
:101150000D0A5468652044617461205265616465BC
:10116000642049733A2573009401234210B586B078
:101170000446012144F20400FFF7AAFC4FF400707A
:10118000ADF8140003208DF8160018208DF8170014
:1011900005A91C48FFF7B7F94FF48060ADF81400BB
:1011A00004208DF8170005A91648FFF7ACF9252093
:1011B0008DF8000003208DF801008DF80200012059
:1011C0008DF803006846FFF73FFC01940020ADF85E
:1011D0000800ADF80A00ADF80C00ADF810000C20C6
:1011E000ADF80E0001A90848FFF748FE012240F2C1
:1011F00025510548FFF71CFE01210348FFF7E2FDDA
:1012000006B010BD0008014000380140576172531C
:1012100068697053544D3332204949432054455333
:1012200054000000441200080000002034000000B8
:101230006C01000878120008340000202C07000020
:101240008801000800A24A0400000000000000001D
:101250000102030406070809000000000000000066
:10126000000000000000010203040102030406075D
:08127000080902040608010050
:04000005080001D519
:00000001FF
