:020000040800F2
:10000000A8070020E101000835500008130A000885
:1000100031500008A1050008CF5C00080000000076
:10002000000000000000000000000000A7570008CA
:10003000A505000800000000A3530008B9580008F7
:10004000FB010008FB010008FB010008FB010008A0
:10005000FB010008FB010008FB010008FB01000890
:10006000FB010008FB010008FB010008FB01000880
:10007000FB010008FB010008FB010008FB01000870
:10008000FB010008FB010008FB010008FB01000860
:10009000FB010008FB010008FB010008ED0500085A
:1000A000FB010008FB010008FB010008FB01000840
:1000B000FB010008FB010008FB010008FB01000830
:1000C000FB010008FB010008FB010008FB01000820
:1000D000FB010008AD5A0008FB010008FB01000805
:1000E000FB010008FB010008FB010008FB01000800
:1000F000FB010008FB010008FB010008FB010008F0
:10010000FB010008FB010008FB010008FB010008DF
:10011000FB010008FB01000879590008FB010008F9
:10012000FB010008FB010008FB010008FB010008BF
:1001300000F002F800F045F80AA090E8000C8244B4
:100140008344AAF10107DA4501D100F03AF8AFF291
:10015000090EBAE80F0013F0010F18BFFB1A43F0A5
:1001600001031847507D0000707D0000103A24BF45
:1001700078C878C1FAD8520724BF30C830C144BF0C
:1001800004680C607047000000230024002500264E
:10019000103A28BF78C1FBD8520728BF30C148BFEA
:1001A0000B607047642900F0BB80782900F0F48070
:1001B000732900F0AA81002070471FB51FBD10B53C
:1001C00010BD00F0BDF91146FFF7F7FF05F098FEEE
:1001D00000F0DBF903B4FFF7F2FF03BC05F079FD93
:1001E0000948804709480047FEE7FEE7FEE7FEE7CB
:1001F000FEE7FEE7FEE7FEE7FEE7FEE70448054907
:10020000054A064B70470000BD5800083101000840
:10021000A8010020A8070020A8030020A8030020B0
:10022000704700000FB4044910B503AA029800F00B
:1002300071F910BC5DF814FB480000200FB41CB528
:10024000074B06AA7B4469460090059800F033F9F5
:100250000020694600F042F91CBC5DF814FB000068
:10026000950200002DE9F0410E4604460020206270
:100270002046E168884730B3252805D0D4E901211C
:100280009047206A401CF2E7E16820460027884733
:10029000050018D0A5F14100192802D820354FF4E7
:1002A00000673246294620462760FFF77BFF40B1B2
:1002B000012804D0F61D26F007060836D8E7361DBB
:1002C000D6E72846DAE7206ABDE8F08170B50C462B
:1002D0000546012A05D02878800600D5EA69002362
:1002E00002E0012305E05B1C934202D2E05C00289F
:1002F000F9D1A869E618C01AA861286A18442862CA
:100300002846AFF3008004E0D5E9012114F8010B81
:100310009047B442F8D32846AFF3008070BD000088
:100320002DE9F0410646002410687529314616A5CE
:1003300010D0AFF30080002802DA404213A507E096
:1003400031688A0701D512A502E0490704D511A535
:10035000012401E0AFF3008000210A2206F1240706
:1003600009E0B0FBF2FCB0FBF2F302FB1C00303002
:1003700078541846491C0028F3D123462A463046B3
:10038000BDE8F04100F038B8000000002D0000008A
:100390002B0000002000000070B504460D462146E9
:1003A0001068AFF300802188090502D50F4A7A440E
:1003B00002E00E4A7A440E32002104F1240305E0E3
:1003C00000F00F060009965D5E54491C0028F7D125
:1003D00020780023000704D5702D02D009B1022334
:1003E00011322046BDE8704000F006B8767A000071
:1003F00070477047704770472DE9F0470D469946A2
:100400009246044600F124080168880604D5E06994
:1004100021F01001216000E00120A84201DD471B0E
:1004200000E00027A1697A1902EB0900081AA0610F
:100430002078C00602D42046AFF30080002608E0F2
:10044000D4E901211AF806009047206A401C761C66
:1004500020624E45F4DB2078C0060AD52046AFF373
:10046000008006E0D4E9012130209047206A401C3A
:100470002062381EA7F10107F4DC07E0D4E901216E
:1004800018F805009047206A401C2062281EA5F13C
:100490000105F3DC2046AFF300802078000602D58A
:1004A0000220BDE8F0870120FBE7000001694A1C3B
:1004B00002610878704700B58FB0CDE901310021A5
:1004C000059105497944CDE9031011466846FFF7C7
:1004D000C9FE0FB000BD0000E5FFFFFF0A6802F88B
:1004E000010B0A60704710B5436913B1AFF3008088
:1004F00001E0FFF7EBFE012010BD127800F12401AE
:100500000A7000224A700122EDE711684FF0FF32B5
:10051000E9E70000074B70B50D467B44FFF7CBFFC2
:100520000446284600F008F810B14FF0FF3070BDC7
:10053000204670BDC7590000007B00F08000704766
:10054000754600F029F8AE4605006946534620F08E
:100550000700854618B020B5FFF750FEBDE82040E3
:100560004FF000064FF000074FF000084FF0000B6F
:1005700021F00701AC46ACE8C009ACE8C009ACE822
:10058000C009ACE8C0098D4670470446AFF300804F
:100590002046FFF71FFE000000487047440100207E
:1005A00000BFFEE770470EB50821002000F032F9C9
:1005B0004FF48070019000208DF8080008208DF81D
:1005C000090001208DF80A0001A800F04BF817205F
:1005D0008DF8000000208DF801008DF80200012048
:1005E0008DF80300684604F027FD0EBD10B54FF4EA
:1005F000807000F023F870B10020094908600120E4
:100600000849C1F898010849C1F88C0107480078E9
:10061000401C064908704FF4807000F009F810BDC6
:1006200098812242008022420080214268000020FE
:100630000149086070470000140401400146002091
:100640000022074B1B6803EA0102054B14331B68A9
:100650000B4013B10AB1012000E0002070470000F8
:1006600000040140002123498279002A3AD00A4639
:10067000126803689A430B461A600A1D12680368E1
:100680009A430B1D1A60027911440A6803681A43E1
:100690000A60184A0832126803689A43154B0833F7
:1006A0001A601A1D126803689A43124B0C331A60C1
:1006B0004279102A0ED11A1F126803681A430D4B93
:1006C00008331A601A1D126803681A43094B0C3369
:1006D0001A600DE00749427911440A6803681A4319
:1006E0000A6005E0027911440A6803689A430A60C7
:1006F000704700000004014051B18200A2F1C042E5
:10070000126842F001038200A2F1C042136009E0C6
:100710008200A2F1C0421268034B1A408300A3F189
:10072000C0431A6070470000FEFF0F00D0E90112BD
:100730001143C2681143026911434269114382693E
:100740001143C2691143026A1143426A1143826A2A
:100750001143C26A1143026B114302689200A2F175
:10076000C0421160816808290BD101688900A1F19C
:10077000C041096841F0400201688900A1F1C0410F
:100780000A60416B0968426B526841EA0211426B90
:10079000926841EA0221426B928941EA0241426B2E
:1007A000128A41EA0251426B127D41EA0261426BB8
:1007B000926911430268521C9200A2F1C04211607A
:1007C000C16AB1F5804F1BD1816B0968826B526899
:1007D00041EA0211826B926841EA0221826B128A1D
:1007E00041EA0251826B127D41EA0261826B926999
:1007F000114302689200A2F1C042C2F8041107E05E
:100800006FF0704201688900A1F1C041C1F8042174
:100810007047000030B500228B071C0F0F2303FA2E
:1008200004F20B4B8C1053F824309343084C8D107A
:1008300044F8253023468C1053F824308C07240FBD
:1008400000FA04F42343024C8D1044F8253030BDE7
:10085000080001402DE9F041024600250026002055
:1008600000230024002791F803C00CF00F0591F835
:1008700003C00CF0100CBCF1000F03D091F802C0C3
:100880004CEA050591F800C0BCF1000F31D01468A6
:1008900000202BE04FF0010C0CFA00F3B1F800C07F
:1008A0000CEA03069E4220D183004FF00F0C0CFA95
:1008B00003F7BC4305FA03FC4CEA040491F803C0B7
:1008C000BCF1280F06D14FF0010C0CFA00FCC2F865
:1008D00014C00AE091F803C0BCF1480F05D14FF0F5
:1008E000010C0CFA00FCC2F810C0401C0828D1D33F
:1008F0001460B1F800C0BCF1FF0F34DD5468002073
:100900002EE000F1080C4FF0010808FA0CF3B1F8E2
:1009100000C00CEA03069E4221D183004FF00F0C69
:100920000CFA03F7BC4305FA03FC4CEA040491F803
:1009300003C0BCF1280F05D100F1080C08FA0CF82F
:10094000C2F8148091F803C0BCF1480F07D100F140
:10095000080C4FF0010808FA0CF8C2F81080401C8F
:100960000828CED35460BDE8F0810000F0B50A46F7
:10097000002300240021002500F00046B6F1004FBE
:1009800002D11D4EF16901E01B4E7168C0F30345B1
:1009900083B200F44016B6F5401F08D121F0706113
:1009A000154E766826F07066134F7E6012E000F4F4
:1009B0008016B6F5801F06D1032606FA05F4A1437A
:1009C00041F0706106E0460D360103FA06F6B143C8
:1009D00041F0706122B1460D360103FA06F631434B
:1009E00000F00046B6F1004F02D1034EF16101E084
:1009F000014E7160F0BD0000000001400246002081
:100A000093680B400BB1012000E0002070470161AA
:100A1000704700BFFEE7000008B50121442004F044
:100A2000E1FC1C20ADF8000048208DF80300694669
:100A30000648FFF70FFF0120ADF8000028208DF8D1
:100A4000030069460248FFF705FF08BD0018014092
:100A50000008014010B5044614B101202C4908706B
:100A60002B480078002837D010212A48FFF7C6FF0E
:100A700078B108212748FFF7C1FF50B1042125486C
:100A8000FFF7BCFF28B101212348FFF7B7FF01287A
:100A900022D10A2005F0DAF900201D490870102142
:100AA0001C48FFF7ABFF08B9012010BD0821194809
:100AB000FFF7A4FF08B90220F7E704211548FFF764
:100AC0009DFF08B90320F0E701211348FFF796FFC7
:100AD00001281BD10420E8E710210E48FFF78EFF04
:100AE000012813D108210B48FFF788FF01280DD1F9
:100AF00004210848FFF782FF012807D10121064899
:100B0000FFF77CFF10B90120014908700020CCE7F5
:100B100062000020001801400008014070B5044642
:100B2000002617480588408845431548808846F6C2
:100B30000401884216D112488079012812D1002080
:100B40000F4988712A2048812B208881002108467E
:100B500003F086FF01200A4988712B2048812A2052
:100B6000888103E00021084603F07AFF04F02AFAA6
:100B7000002602E003480480761CAE42FAD370BD22
:100B8000340100200008006C10B50446002C66D12A
:100B90006C498871F02008804FF4A07048800846A6
:100BA000808849F2413188420BD06648808846F6F9
:100BB0000401884205D06348808845F2103188429C
:100BC0001AD12C205F4908812A2048812B20888156
:100BD0000846808846F60401884205D05948808836
:100BE00045F21031884206D14FF4A0705549088073
:100BF0004FF4F0704880A1E05248808845F21051CF
:100C0000884210D14FF430504E4908814FF428509B
:100C100048814FF42C5088814FF4F07008804FF4D5
:100C2000487048808AE04748808841F663118842CE
:100C30000DD12C20434908812B2048812A2088810E
:100C40004FF4F07008804FF44870488076E022201E
:100C50003C49088120204881212088816EE00120C4
:100C6000384988714FF4A0700880F0204880084609
:100C7000808849F24131884205D03248808845F267
:100C80001031884207D12C202E4908812A20488122
:100C90002B2088813FE02B48808846F6040188425B
:100CA00007D12C20274908812B2048812A208881C0
:100CB00031E02448808845F21051884210D14FF429
:100CC0003050204908814FF4285048814FF42C506F
:100CD00088814FF4487008804FF4F07048801AE023
:100CE0001848808841F6631188420DD12C2015499F
:100CF00008812A2048812B2088814FF44870088081
:100D00004FF4F070488006E022200E49088121202F
:100D10004881202088810B48808846F6040188425B
:100D200005D00848808845F21031884206D14FF43A
:100D3000F070044908804FF4A0704880002003F050
:100D400019FD10BD3401002030B503460C46154690
:100D50005A48808849F24131884205D057488088F6
:100D600045F21031884214D15449488904F024F9DD
:100D7000181204F01BF9D8B204F018F94F49888909
:100D800004F01AF9201204F011F9E0B204F00EF99F
:100D90008CE04A48808845F21051884220D147496A
:100DA000488904F009F9181204F000F94349498907
:100DB000491C88B204F000F9D8B204F0F7F83F49B2
:100DC000888904F0F9F8201204F0F0F83B49898989
:100DD000491C88B204F0F0F8E0B204F0E7F865E0EE
:100DE0003648808841F66311884228D1334880799B
:100DF00020B932480088401EC01A83B22F49488962
:100E000004F0DAF8181204F0D1F8D8B204F0CEF8F1
:100E1000181204F0CBF8D8B204F0C8F82749888932
:100E200004F0CAF8201204F0C1F8E0B204F0BEF8F1
:100E3000201204F0BBF8E0B204F0B8F836E01F4826
:100E4000808846F6040188421DD11C48807901281B
:100E500004D11A480088401EC01A83B21749488935
:100E600004F0AAF8181204F0A1F8D8B204F09EF821
:100E70001249888904F0A0F8201204F097F8E0B233
:100E800004F094F812E00D488079012804D10B4851
:100E90000088401EC01A83B208494889194604F0E8
:100EA0009BF806498889214604F096F80348008992
:100EB00003490880881C058030BD000034010020F3
:100EC000FE07006C2DE9FC4F05460E461746984676
:100ED000DDF82C90002001902748808846F6040118
:100EE000884229D124488079012825D1AB4635464E
:100EF00021480088C01B401E86B247461E48008815
:100F0000A0EB0B00401E1FFA80F800201A498871E0
:100F10002A2048812B20888143463A46314628467C
:100F2000CDF80090FFF7CEFF0120134988712B20E8
:100F300048812A2088811CE0781B401C80B20190E7
:100F4000344614E02146284603F08AFD04F03AF8BE
:100F50004FF0000A06E00948A0F800900AF10100ED
:100F60001FFA80FA01988245F5DB601C84B2444583
:100F7000E8DDBDE8FC8F0000340100200008006CB3
:100F800000B59FB00121080204F00CFA01214FF4D2
:100F9000B47004F027FA0120ADF8780010208DF825
:100FA0007B0003208DF87A001EA9FE48FFF752FC53
:100FB0004CF23370ADF8780018208DF87B000320D8
:100FC0008DF87A001EA9F848FFF744FC4FF68070B0
:100FD000ADF8780018208DF87B0003208DF87A009A
:100FE0001EA9F248FFF736FC41F20100ADF8780087
:100FF00018208DF87B0003208DF87A001EA9EC489C
:10100000FFF728FC01200890002009900F200A908B
:1010100000200B900C900D900E90019002900320F8
:1010200003900020049005900690079006200F90F2
:101030000020109011901020129000201390159015
:101040001490169017904FF480501890002019902B
:101050004FF480401A9000201B9008A81C9001A813
:101060001D900FA8FFF762FB01210620FFF744FB4C
:10107000322004F0EBFE002003F046FBCD498880CF
:1010800008468088FF280ADB084680884FF6FF71F3
:10109000884204D0C7488088B0F5134F7ED1D32052
:1010A00003F08AFF03F026FBC249888003F022FB8D
:1010B000C049888003F01EFBBE49888008468088AE
:1010C0004FF6FF7101EA0020BA49888003F012FB55
:1010D000B84989880843B74988800846808849F21A
:1010E000413188425AD0BF2003F066FF03F002FB73
:1010F000B049888003F0FEFAAE49888003F0FAFA1E
:10110000AC49888003F0F6FAAA49888008468088AE
:101110004FF6FF7101EA0020A649888003F0EAFA41
:10112000A44989880843A34988800846808846F6F0
:10113000040188427AD0D42003F03EFF03F0DAFAAB
:101140009C49888003F0D6FA9A49888003F0D2FA45
:1011500098498880084680884FF6FF7101EA002090
:101160009449888003F0C6FA9249898808439149D6
:1011700088800846808845F21031884256D04FF466
:101180005A4003F019FF03F0B5FA8A4988804FF4FA
:101190005B4003F011FF03F0ADFA00E046E0854943
:1011A0008880084680884FF6FF7101EA0020814957
:1011B00088804FF45C4003F0FFFE03F09BFA7D490A
:1011C000898808437B49888008468088B0F5004FAD
:1011D00002D145F2105088807648808845F210513F
:1011E000884223D0A12003F0E7FE03F083FA71497F
:1011F000888003F07FFA6F498880084680884FF620
:10120000FF7101EA00206B49888003F073FA694995
:1012100089880843674988800846808845F261715B
:10122000884203D141F66310624988806148818811
:1012300061A0FEF7F7FF5F48808849F2413188429C
:101240007ED1CF2003F0B8FE002003F0AFFEC12016
:1012500003F0ACFE302003F0A9FEED2003F0ACFE5D
:10126000642003F0A3FE032003F0A0FE122003F08D
:101270009DFE812003F09AFEE82003F09DFE85206C
:1012800003F094FE102003F091FE7A2003F08EFE0E
:10129000CB2003F091FE392003F088FE2C2003F0D0
:1012A00085FE002003F082FE342003F07FFE022042
:1012B00003F07CFEF72003F07FFE202003F076FE93
:1012C000EA2003F079FE002003F070FE002003F016
:1012D0006DFEC02003F070FE1B2003F067FEC120EE
:1012E00003F06AFE012003F061FEC52003F064FEF6
:1012F000302003F05BFE302003F058FEC72003F0DF
:101300005BFEB72003F052FE362003F055FE482066
:1013100003F04CFE3A2003F04FFE552003F046FE4A
:10132000B12003F049FE002003F040FE1A2003F034
:101330003DFEB62003F040FE0A2003F037FE00E039
:10134000AAE0A22003F032FEF22003F035FE0020D6
:1013500003F02CFE262003F02FFE012003F026FED2
:10136000E02003F029FE0F2003F020FE2A2003F0E6
:101370001DFE282003F01AFE082003F017FE0E20A1
:1013800003F014FE082003F011FE542003F00EFEBB
:10139000A92003F00BFE432003F008FE0A2003F00F
:1013A00005FE11E0000C014000140140001801404E
:1013B0000020014034010020204C43442049443A9D
:1013C00025780D0A000000000F2003F0EFFD00203B
:1013D00003F0ECFD002003F0E9FD002003F0E6FD42
:1013E000002003F0E3FDE12003F0E6FD002003F020
:1013F000DDFD152003F0DAFD172003F0D7FD0720EF
:1014000003F0D4FD112003F0D1FD062003F0CEFD42
:101410002B2003F0CBFD562003F0C8FD3C2003F049
:10142000C5FD052003F0C2FD102003F0BFFD0F2015
:1014300003F0BCFD3F2003F0B9FD3F2003F0B6FDF3
:101440000F2003F0B3FD2B2003F0B6FD002003F0C6
:10145000ADFD002003F0AAFD012003F0A7FD3F2011
:1014600003F0A4FD2A2003F0A7FD002003F09EFD59
:10147000002003F09BFD002003F098FDEF2003F017
:1014800095FD112003F098FD782004F0DFFC292061
:1014900003F092FD03F01DB9FE48808846F6040172
:1014A00088427CD1112003F087FD142004F0CEFC8B
:1014B000D02003F081FD072003F078FD422003F0E7
:1014C00075FD1D2003F072FDD12003F075FD002095
:1014D00003F06CFD1A2003F069FD092003F066FD9E
:1014E000D22003F069FD012003F060FD222003F00B
:1014F0005DFDC02003F060FD102003F057FD3B2090
:1015000003F054FD002003F051FD022003F04EFDD6
:10151000112003F04BFDC52003F04EFD032003F026
:1015200045FDC82003F048FD002003F03FFD2520C5
:1015300003F03CFD212003F039FD052003F036FDCA
:10154000002003F033FD0A2003F030FD652003F096
:101550002DFD252003F02AFD772003F027FD5020E4
:1015600003F024FD0F2003F021FD002003F01EFDF9
:10157000F82003F021FD012003F018FDFE2003F008
:101580001BFD002003F012FD022003F00FFD2020C0
:1015900003F012FD362003F00FFD082000E02CE0E0
:1015A00003F004FD3A2003F007FD552003F0FEFC94
:1015B0002B2003F001FD002003F0F8FC002003F0D5
:1015C000F5FC012003F0F2FC3F2003F0EFFC2A20A1
:1015D00003F0F2FC002003F0E9FC002003F0E6FC3D
:1015E000012003F0E3FCDF2003F0E0FC782004F0AE
:1015F0002DFC292003F0E0FC4CE7A648808845F24A
:101600001031884240F07C87ED2003F0D5FC0120AA
:1016100003F0CCFCFE2003F0C9FCEE2003F0CCFC70
:10162000DE2003F0C3FC212003F0C0FCF12003F016
:10163000C3FC012003F0BAFCDF2003F0BDFC102046
:1016400003F0B4FCC42003F0B7FC8F2003F0AEFC21
:10165000C62003F0B1FC002003F0A8FCE22003F058
:10166000A5FCE22003F0A2FCE22003F09FFCBF20D7
:1016700003F0A2FCAA2003F099FCB02003F09CFC2C
:101680000D2003F093FC002003F090FC0D2003F0EC
:101690008DFC002003F08AFC112003F087FC002061
:1016A00003F084FC192003F081FC002003F07EFC91
:1016B000212003F07BFC002003F078FC2D2003F0B8
:1016C00075FC002003F072FC3D2003F06FFC00204D
:1016D00003F06CFC5D2003F069FC002003F066FC65
:1016E0005D2003F063FC002003F060FCB12003F0F8
:1016F00063FC802003F05AFC002003F057FC8B2091
:1017000003F054FC002003F051FC962003F04EFC43
:10171000002003F04BFCB22003F04EFC002003F04D
:1017200045FC002003F042FC022003F03FFC0020B7
:1017300003F03CFC032003F039FC002003F036FCEE
:10174000B32003F039FC002003F030FC002003F04C
:101750002DFC002003F02AFC002003F027FC0020D1
:1017600003F024FC002003F021FC002003F01EFC09
:10177000002003F01BFC002003F018FC002003F005
:1017800015FC002003F012FC002003F00FFC0020E9
:1017900003F00CFC002003F009FC002003F006FC21
:1017A000002003F003FC002003F000FC002003F005
:1017B000FDFB002003F0FAFB002003F0F7FB002004
:1017C00003F0F4FB002003F0F1FB002003F0EEFB3C
:1017D000002003F0EBFBB42003F0EEFB8B2003F0C2
:1017E000E5FB002003F0E2FB962003F0DFFB002086
:1017F00003F0DCFBA12003F0D9FB002003F0D6FBB3
:10180000B52003F0D9FB022003F0D0FB002003F049
:10181000CDFB032003F0CAFB002003F0C7FB04202C
:1018200003F0C4FB002003F0C1FBB62003F0C4FBAF
:10183000002003F0BBFB002003F0B8FBB72003F04F
:10184000BBFB002003F0B2FB002003F0AFFB3F2006
:1018500003F0ACFB002003F0A9FB5E2003F0A6FB25
:10186000002003F0A3FB642003F0A0FB002003F0A2
:101870009DFB8C2003F09AFB002003F097FBAC202B
:1018800003F094FB002003F091FBDC2003F08EFBBF
:10189000002001E03401002003F088FB702003F0F9
:1018A00085FB002003F082FB902003F07FFB0020EB
:1018B00003F07CFBEB2003F079FB002003F076FBC8
:1018C000DC2003F073FB002003F070FBB82003F072
:1018D00073FB002003F06AFB002003F067FB00208D
:1018E00003F064FB002003F061FB002003F05EFBCB
:1018F000002003F05BFB002003F058FB002003F006
:1019000055FBBA2003F058FB242003F04FFB0020C6
:1019100003F04CFB002003F049FB002003F046FBE2
:10192000C12003F049FB202003F040FB002003F01E
:101930003DFB542003F03AFB002003F037FBFF206F
:1019400003F034FB002003F031FBC22003F034FB32
:101950000A2003F02BFB002003F028FB042003F0F7
:1019600025FB002003F022FBC32003F025FB3C20D5
:1019700003F01CFB002003F019FB3A2003F016FBD8
:10198000002003F013FB392003F010FB002003F0CC
:101990000DFB372003F00AFB002003F007FB3C207F
:1019A00003F004FB002003F001FB362003F0FEFAF5
:1019B000002003F0FBFA322003F0F8FA002003F0D5
:1019C000F5FA2F2003F0F2FA002003F0EFFA2C20B2
:1019D00003F0ECFA002003F0E9FA292003F0E6FA1C
:1019E000002003F0E3FA262003F0E0FA002003F0E1
:1019F000DDFA242003F0DAFA002003F0D7FA2420DD
:101A000003F0D4FA002003F0D1FA232003F0CEFA39
:101A1000002003F0CBFA3C2003F0C8FA002003F0CA
:101A2000C5FA362003F0C2FA002003F0BFFA3220D4
:101A300003F0BCFA002003F0B9FA2F2003F0B6FA45
:101A4000002003F0B3FA2C2003F0B0FA002003F0DA
:101A5000ADFA292003F0AAFA002003F0A7FA262005
:101A600003F0A4FA002003F0A1FA242003F09EFA68
:101A7000002003F09BFA242003F098FA002003F0E2
:101A800095FA232003F092FA002003F08FFAC42085
:101A900003F092FA622003F089FA002003F086FA3C
:101AA000052003F083FA002003F080FA842003F07D
:101AB0007DFA002003F07AFAF02003F077FA002094
:101AC00003F074FA182003F071FA002003F06EFAA4
:101AD000A42003F06BFA002003F068FA182003F04A
:101AE00065FA002003F062FA502003F05FFA00204C
:101AF00003F05CFA0C2003F059FA002003F056FAC8
:101B0000172003F053FA002003F050FA952003F059
:101B10004DFA002003F04AFAF32003F047FA0020C0
:101B200003F044FAE62003F041FA002003F03EFA05
:101B3000C52003F041FA322003F038FA002003F008
:101B400035FA442003F032FA002003F02FFA652022
:101B500003F02CFA002003F029FA762003F026FA8D
:101B6000002003F023FA882003F020FA002003F07D
:101B70001DFAC62003F020FA202003F017FA0020F7
:101B800003F014FA172003F011FA002003F00EFA04
:101B9000012003F00BFA002003F008FAC72003F03D
:101BA0000BFA002003F002FA002003F0FFF90020F6
:101BB00003F0FCF9002003F0F9F9C82003F0FCF968
:101BC000002003F0F3F9002003F0F0F9002003F007
:101BD000EDF9002003F0EAF9C92003F0EDF9002047
:101BE00003F0E4F9002003F0E1F9002003F0DEF94E
:101BF000002003F0DBF9002003F0D8F9002003F007
:101C0000D5F9002003F0D2F9002003F0CFF900202D
:101C100003F0CCF9002003F0C9F9002003F0C6F965
:101C2000002003F0C3F9002003F0C0F9002003F006
:101C3000BDF9002003F0BAF9002003F0B7F9E02065
:101C400003F0BAF9162003F0B1F9002003F0AEF961
:101C50001C2003F0ABF9002003F0A8F9212003F0C9
:101C6000A5F9002003F0A2F9362003F09FF9002027
:101C700003F09CF9462003F099F9002003F096F94F
:101C8000522003F093F9002003F090F9642003F050
:101C90008DF9002003F08AF97A2003F087F90020FB
:101CA00003F084F98B2003F081F9002003F07EF922
:101CB000992003F07BF9002003F078F9A82003F0C5
:101CC00075F9002003F072F9B92003F06FF90020D4
:101CD00003F06CF9C42003F069F9002003F066F901
:101CE000CA2003F063F9002003F060F9D22003F06A
:101CF0005DF9002003F05AF9D92003F057F90020CC
:101D000003F054F9E02003F051F9002003F04EF9FC
:101D1000F32003F04BF9002003F048F9E12003F031
:101D20004BF9162003F042F9002003F03FF91C2084
:101D300003F03CF9002003F039F9222003F036F9D2
:101D4000002003F033F9362003F030F9002003F0CF
:101D50002DF9452003F02AF9002003F027F952203D
:101D600003F024F9002003F021F9642003F01EF9A8
:101D7000002003F01BF97A2003F018F9002003F08B
:101D800015F98B2003F012F9002003F00FF99920C8
:101D900003F00CF9002003F009F9A82003F006F97C
:101DA000002003F003F9B92003F000F9002003F04C
:101DB000FDF8C42003F0FAF8002003F0F7F8CA2079
:101DC00003F0F4F8002003F0F1F8D22003F0EEF86D
:101DD000002003F0EBF8D82003F0E8F8002003F02F
:101DE000E5F8E02003F0E2F8002003F0DFF8F3204C
:101DF00003F0DCF8002003F0D9F8E22003F0DCF86F
:101E0000052003F0D3F8002003F0D0F80B2003F0F6
:101E1000CDF8002003F0CAF81B2003F0C7F800201B
:101E200003F0C4F8342003F0C1F8002003F0BEF83A
:101E3000442003F0BBF8002003F0B8F84F2003F073
:101E4000B5F8002003F0B2F8612003F0AFF80020ED
:101E500003F0ACF8792003F0A9F8002003F0A6F80D
:101E6000882003F0A3F8002003F0A0F8972003F0E7
:101E70009DF8002003F09AF8A62003F097F80020C0
:101E800003F094F8B72003F091F8002003F08EF8E7
:101E9000C22003F08BF8002003F088F8C72003F07D
:101EA00085F8002003F082F8D12003F07FF80020AD
:101EB00003F07CF8D62003F079F8002003F076F8E0
:101EC000DD2003F073F8002003F070F8F32003F036
:101ED0006DF8002003F06AF8E32003F06DF80520A8
:101EE00003F064F8002003F061F80A2003F05EF8C4
:101EF000002003F05BF81C2003F058F8002003F0EA
:101F000055F8332003F052F8002003F04FF8442036
:101F100003F04CF8002003F049F8502003F046F895
:101F2000002003F043F8622003F040F8002003F0A3
:101F30003DF8782003F03AF8002003F037F88820C5
:101F400003F034F8002003F031F8972003F02EF866
:101F5000002003F02BF8A62003F028F8002003F05F
:101F600025F8B72003F022F8002003F01FF8C22064
:101F700003F01CF8002003F019F8C72003F016F84E
:101F8000002003F013F8D12003F010F8002003F034
:101F90000DF8D52003F00AF8002003F007F8DD2043
:101FA00003F004F8002003F001F8F32002F0FEFF34
:101FB000002002F0FBFFE42002F0FEFF012002F00F
:101FC000F5FF002002F0F2FF012002F0EFFF0020F9
:101FD00002F0ECFF022002F0E9FF002002F0E6FF31
:101FE0002A2002F0E3FF002002F0E0FF3C2002F094
:101FF000DDFF002002F0DAFF4B2002F0D7FF0020C7
:1020000002F0D4FF5D2002F0D1FF002002F0CEFFED
:10201000742002F0CBFF002002F0C8FF842002F001
:10202000C5FF002002F0C2FF932002F0BFFF002096
:1020300002F0BCFFA22002F0B9FF002002F0B6FFC0
:10204000B32002F0B3FF002002F0B0FFBE2002F088
:10205000ADFF002002F0AAFFC42002F0A7FF00207D
:1020600002F0A4FFCD2002F0A1FF002002F09EFFAD
:10207000D32002F09BFF002002F098FFDD2002F049
:1020800095FF002002F092FFF32002F08FFF002066
:1020900002F08CFFE52002F08FFF002002F086FFA7
:1020A000002002F083FF002002F080FF002002F0F9
:1020B0007DFF022002F07AFF002002F077FF292046
:1020C00002F074FF002002F071FF3C2002F06EFF6E
:1020D000002002F06BFF4B2002F068FF002002F0AE
:1020E00065FF5D2002F062FF002002F05FFF7420B8
:1020F00002F05CFF002002F059FF842002F056FF3E
:10210000002002F053FF932002F050FF002002F065
:102110004DFFA22002F04AFF002002F047FFB3204B
:1021200002F044FF002002F041FFBE2002F03EFF1B
:10213000002002F03BFFC42002F038FF002002F034
:1021400035FFCD2002F032FF002002F02FFFD32018
:1021500002F02CFF002002F029FFDC2002F026FF15
:10216000002002F023FFF32002F020FF002002F005
:102170001DFFE62002F020FF112002F017FF0020D3
:1021800002F014FF342002F011FF002002F00EFFD5
:10219000562002F00BFF002002F008FF762002F02C
:1021A00005FF002002F002FF772002F0FFFE002072
:1021B00002F0FCFE662002F0F9FE002002F0F6FEBE
:1021C000882002F0F3FE002002F0F0FE992002F0D9
:1021D000EDFE002002F0EAFEBB2002F0E7FE002048
:1021E00002F0E4FE992002F0E1FE002002F0DEFEA3
:1021F000662002F0DBFE002002F0D8FE552002F03F
:10220000D5FE002002F0D2FE552002F0CFFE0020C5
:1022100002F0CCFE452002F0C9FE002002F0C6FE0E
:10222000432002F0C3FE002002F0C0FE442002F072
:10223000BDFE002002F0BAFEE72002F0BDFE322013
:1022400002F0B4FE002002F0B1FE552002F0AEFE16
:10225000002002F0ABFE762002F0A8FE002002F083
:10226000A5FE662002F0A2FE002002F09FFE67207D
:1022700002F09CFE002002F099FE672002F096FE1C
:10228000002002F093FE872002F090FE002002F072
:102290008DFE992002F08AFE002002F087FEBB200E
:1022A00002F084FE002002F081FE992002F07EFE02
:1022B000002002F07BFE772002F078FE002002F082
:1022C00075FE442002F072FE002002F06FFE5620E0
:1022D00002F06CFE002002F069FE232002F066FE90
:1022E000002002F063FE332002F060FE002002F0C6
:1022F0005DFE452002F05AFE002002F057FEE82065
:1023000002F05AFE002002F051FE002002F04EFEC4
:10231000992002F04BFE002002F048FE872002F0D8
:1023200045FE002002F042FE882002F03FFE002021
:1023300002F03CFE772002F039FE002002F036FE6B
:10234000662002F033FE002002F030FE882002F00A
:102350002DFE002002F02AFEAA2002F027FE002017
:1023600002F024FEBB2002F021FE002002F01EFE3F
:10237000992002F01BFE002002F018FE662002F0F9
:1023800015FE002002F012FE552002F00FFE002084
:1023900002F00CFE552002F009FE002002F006FEBD
:1023A000442002F003FE002002F000FE442002F070
:1023B000FDFD002002F0FAFD552002F0F7FD00209F
:1023C00002F0F4FDE92002F0F7FDAA2002F0EEFD94
:1023D000002002F0EBFD002002F0E8FD002002F0FA
:1023E000E5FD002002F0E8FDAA2002F0DFFDCF208D
:1023F00002F0E2FD002002F0D9FD002002F0D6FD3F
:10240000002002F0D3FD002002F0D0FD002002F0F9
:10241000CDFD002002F0CAFD002002F0C7FD002023
:1024200002F0C4FD002002F0C1FD002002F0BEFD5C
:10243000002002F0BBFD002002F0B8FD002002F0F9
:10244000B5FD002002F0B2FD002002F0AFFD00203B
:1024500002F0ACFD002002F0A9FDF02002F0ACFD7E
:10246000002002F0A3FD502002F0A0FD002002F0A9
:102470009DFD002002F09AFD002002F097FDF32060
:1024800002F09AFD002002F091FDF92002F094FD87
:10249000062002F08BFD102002F088FD292002F0BA
:1024A00085FD002002F082FD3A2002F085FD5520D6
:1024B00002F07CFD112002F07FFD642003F0C6FCD9
:1024C000292002F079FD352002F076FD002002F08F
:1024D0006DFD512002F070FDFF2002F067FD5320DA
:1024E00002F06AFD2C2002F061FD552002F064FD2F
:1024F000822002F05BFD2C2002F05EFD02F0E9B8C4
:10250000FE48808845F2105188427DD155214FF414
:10251000704002F061FDAA214FF2010002F05CFD63
:1025200052214FF2020002F057FD08214FF2030042
:1025300002F052FD01214FF2040002F04DFD0D2189
:102540004FF4304002F048FD0D214BF2010002F043
:1025500043FD0D214BF2020002F03EFD34214FF409
:10256000364002F039FD34214BF2016002F034FDB7
:1025700034214BF2026002F02FFD0D214FF4314067
:1025800002F02AFD0D214BF2011002F025FD0D2174
:102590004BF2021002F020FD34214FF4374002F0DC
:1025A0001BFD34214BF2017002F016FD34214BF279
:1025B000027002F011FD00214FF4324002F00CFDD8
:1025C00000214BF2012002F007FD00214BF2022016
:1025D00002F002FD24214FF4384002F0FDFC2421DA
:1025E0004BF6010002F0F8FC24214BF6020002F049
:1025F000F3FC01214FF43F4002F0EEFC0F214FF4B9
:10260000334002F0E9FC00E0FDE30F214BF2013022
:1026100002F0E2FC0F214BF2023002F0DDFC34212B
:102620004FF4394002F0D8FC34214BF6011002F08F
:10263000D3FC34214BF6021002F0CEFC08214FF4FB
:10264000354002F0C9FC08214BF2015002F0C4FCF5
:1026500008214BF2025002F0BFFC03214FF442402C
:1026600002F0BAFC24214FF43A4002F0B5FC2421D8
:102670004BF6012002F0B0FC24214BF6022002F0C0
:10268000ABFC00214FF43C4002F0A6FC78214BF655
:10269000014002F0A1FC00214BF6024002F09CFC3C
:1026A00000214FF43D4002F097FC78214BF6015099
:1026B00002F092FC00214BF6025002F08DFC00214A
:1026C0004FF43E4002F088FC64214BF6016002F0BA
:1026D00083FC00214FF4514002F07EFC33214DF287
:1026E000011002F079FC00214DF2021002F074FC9E
:1026F00034214DF2031002F06FFC00214DF2041062
:1027000002F06AFC3A214DF2051002F065FC00214E
:102710004DF2061002F060FC4A214DF2071002F063
:102720005BFC00214DF2081002F056FC5C214DF2DA
:10273000091002F051FC00214DF20A1002F04CFC8D
:1027400081214DF20B1002F047FC00214DF20C10DC
:1027500002F042FCA6214DF20D1002F03DFC0021DA
:102760004DF20E1002F038FCE5214DF20F1002F090
:1027700033FC01214DF2101002F02EFC13214DF21A
:10278000111002F029FC01214DF2121002F024FC7C
:1027900054214DF2131002F01FFC01214DF21410D0
:1027A00002F01AFC82214DF2151002F015FC0121F5
:1027B0004DF2161002F010FCCA214DF2171002F073
:1027C0000BFC02214DF2181002F006FC00214DF224
:1027D000191002F001FC02214DF21A1002F0FCFB6C
:1027E00001214DF21B1002F0F7FB02214DF21C10EB
:1027F00002F0F2FB34214DF21D1002F0EDFB02213C
:102800004DF21E1002F0E8FB67214DF21F1002F09E
:10281000E3FB02214DF2201002F0DEFB84214DF299
:10282000211002F0D9FB02214DF2221002F0D4FB5C
:10283000A4214DF2231002F0CFFB02214DF224100F
:1028400002F0CAFBB7214DF2251002F0C5FB0221B0
:102850004DF2261002F0C0FBCF214DF2271002F0FE
:10286000BBFB02214DF2281002F0B6FBDE214DF237
:10287000291002F0B1FB02214DF22A1002F0ACFB4C
:10288000F2214DF22B1002F0A7FB02214DF22C1089
:1028900002F0A2FBFE214DF22D1002F09DFB032160
:1028A0004DF22E1002F098FB10214DF22F1002F085
:1028B00093FB03214DF2301002F08EFB33214DF2D9
:1028C000311002F089FB03214DF2321002F084FB3B
:1028D0006D214DF2331002F07FFB00214FF4524086
:1028E00002F07AFB33214DF2012002F075FB00214A
:1028F0004DF2022002F070FB342101E0340100208F
:102900004DF2032002F068FB00214DF2042002F09A
:1029100063FB3A214DF2052002F05EFB00214DF2EF
:10292000062002F059FB4A214DF2072002F054FB29
:1029300000214DF2082002F04FFB5C214DF20920EE
:1029400002F04AFB00214DF20A2002F045FB8121F2
:102950004DF20B2002F040FB00214DF20C2002F062
:102960003BFBA6214DF20D2002F036FB00214DF27B
:102970000E2002F031FBE5214DF20F2002F02CFB7E
:1029800001214DF2102002F027FB13214DF21120FE
:1029900002F022FB01214DF2122002F01DFB542116
:1029A0004DF2132002F018FB01214DF2142002F029
:1029B00013FB82214DF2152002F00EFB01214DF296
:1029C000162002F009FBCA214DF2172002F004FB89
:1029D00002214DF2182002F0FFFA00214DF21920D9
:1029E00002F0FAFA02214DF21A2002F0F5FA012162
:1029F0004DF21B2002F0F0FA02214DF21C2002F0F1
:102A0000EBFA34214DF21D2002F0E6FA02214DF2DC
:102A10001E2002F0E1FA67214DF21F2002F0DCFADD
:102A200002214DF2202002F0D7FA84214DF221201C
:102A300002F0D2FA02214DF2222002F0CDFAA421B6
:102A40004DF2232002F0C8FA02214DF2242002F0B8
:102A5000C3FAB7214DF2252002F0BEFA02214DF251
:102A6000262002F0B9FACF214DF2272002F0B4FA65
:102A700002214DF2282002F0AFFADE214DF229208A
:102A800002F0AAFA02214DF22A2002F0A5FAF22160
:102A90004DF22B2002F0A0FA02214DF22C2002F080
:102AA0009BFAFE214DF22D2002F096FA03214DF201
:102AB0002E2002F091FA10214DF22F2002F08CFA14
:102AC00003214DF2302002F087FA33214DF23120FC
:102AD00002F082FA03214DF2322002F07DFA6D21DC
:102AE0004DF2332002F078FA00214FF4534002F007
:102AF00073FA33214DF2013002F06EFA00214DF2EB
:102B0000023002F069FA34214DF2033002F064FA27
:102B100000214DF2043002F05FFA3A214DF2053007
:102B200002F05AFA00214DF2063002F055FA4A211D
:102B30004DF2073002F050FA00214DF2083002F059
:102B40004BFA5C214DF2093002F046FA00214DF2B9
:102B50000A3002F041FA81214DF20B3002F03CFACA
:102B600000214DF20C3002F037FAA6214DF20D3063
:102B700002F032FA00214DF20E3002F02DFAE5217A
:102B80004DF20F3002F028FA01214DF2103002F020
:102B900023FA13214DF2113002F01EFA01214DF2F9
:102BA000123002F019FA54214DF2133002F014FAE7
:102BB00001214DF2143002F00FFA82214DF215304E
:102BC00002F00AFA01214DF2163002F005FACA218C
:102BD0004DF2173002F000FA02214DF2183002F0E7
:102BE000FBF900214DF2193002F0F6F902214DF205
:102BF0001A3002F0F1F901214DF21B3002F0ECF92C
:102C000002214DF21C3002F0E7F934214DF21D3063
:102C100002F0E2F902214DF21E3002F0DDF96721E7
:102C20004DF21F3002F0D8F902214DF2203002F0AF
:102C3000D3F984214DF2213002F0CEF902214DF278
:102C4000223002F0C9F9A4214DF2233002F0C4F978
:102C500002214DF2243002F0BFF9B7214DF22530A8
:102C600002F0BAF902214DF2263002F0B5F9CF2177
:102C70004DF2273002F0B0F902214DF2283002F077
:102C8000ABF9DE214DF2293002F0A6F902214DF216
:102C90002A3002F0A1F9F2214DF22B3002F09CF91A
:102CA00002214DF22C3002F097F9FE214DF22D3029
:102CB00002F092F903214DF22E3002F08DF910212D
:102CC0004DF22F3002F088F903214DF2303002F03E
:102CD00083F933214DF2313002F07EF903214DF2B8
:102CE000323002F079F96D214DF2333002F074F98F
:102CF00000214FF4544002F06FF933214DF20140AE
:102D000002F06AF900214DF2024002F065F9342127
:102D10004DF2034002F060F900214DF2044002F050
:102D20005BF93A214DF2054002F056F900214DF2CF
:102D3000064002F051F94A214DF2074002F04CF9E9
:102D400000214DF2084002F047F95C214DF20940A4
:102D500002F042F900214DF20A4002F03DF98121D2
:102D60004DF20B4002F038F900214DF20C4002F018
:102D700033F9A6214DF20D4002F02EF900214DF25B
:102D80000E4002F029F9E5214DF20F4002F024F93E
:102D900001214DF2104002F01FF913214DF21140B4
:102DA00002F01AF901214DF2124002F015F95421F6
:102DB0004DF2134002F010F901214DF2144002F0DF
:102DC0000BF982214DF2154002F006F901214DF276
:102DD000164002F001F9CA214DF2174002F0FCF84A
:102DE00002214DF2184002F0F7F800214DF219408F
:102DF00002F0F2F802214DF21A4002F0EDF8012142
:102E00004DF21B4000E006E302F0E6F802214DF22D
:102E10001C4002F0E1F834214DF21D4002F0DCF8D4
:102E200002214DF21E4002F0D7F867214DF21F40FB
:102E300002F0D2F802214DF2204002F0CDF88421B8
:102E40004DF2214002F0C8F802214DF2224002F07A
:102E5000C3F8A4214DF2234002F0BEF802214DF246
:102E6000244002F0B9F8B7214DF2254002F0B4F841
:102E700002214DF2264002F0AFF8CF214DF227405B
:102E800002F0AAF802214DF2284002F0A5F8DE2156
:102E90004DF2294002F0A0F802214DF22A4002F042
:102EA0009BF8F2214DF22B4002F096F802214DF2F0
:102EB0002C4002F091F8FE214DF22D4002F08CF8EA
:102EC00003214DF22E4002F087F810214DF22F40E1
:102ED00002F082F803214DF2304002F07DF83321F8
:102EE0004DF2314002F078F803214DF2324002F009
:102EF00073F86D214DF2334002F06EF800214FF46B
:102F0000554002F069F833214DF2015002F064F8A7
:102F100000214DF2025002F05FF834214DF20350CF
:102F200002F05AF800214DF2045002F055F83A210F
:102F30004DF2055002F050F800214DF2065002F01B
:102F40004BF84A214DF2075002F046F800214DF2AD
:102F5000085002F041F85C214DF2095002F03CF8B3
:102F600000214DF20A5002F037F881214DF20B504A
:102F700002F032F800214DF20C5002F02DF8A6219B
:102F80004DF20D5002F028F800214DF20E5002F0E3
:102F900023F8E5214DF20F5002F01EF801214DF209
:102FA000105002F019F813214DF2115002F014F8EC
:102FB00001214DF2125002F00FF854214DF213503E
:102FC00002F00AF801214DF2145002F005F88221B6
:102FD0004DF2155002F000F801214DF2165001F0AB
:102FE000FBFFCA214DF2175001F0F6FF02214DF20E
:102FF000185001F0F1FF00214DF2195001F0ECFFE3
:1030000002214DF21A5001F0E7FF01214DF21B5051
:1030100001F0E2FF02214DF21C5001F0DDFF3421EE
:103020004DF21D5001F0D8FF02214DF21E5001F06B
:10303000D3FF67214DF21F5001F0CEFF02214DF268
:10304000205001F0C9FF84214DF2215001F0C4FF4E
:1030500002214DF2225001F0BFFFA4214DF2235076
:1030600001F0BAFF02214DF2245001F0B5FFB72163
:103070004DF2255001F0B0FF02214DF2265001F033
:10308000ABFFCF214DF2275001F0A6FF02214DF2F8
:10309000285001F0A1FFDE214DF2295001F09CFFE4
:1030A00002214DF22A5001F097FFF2214DF22B50F0
:1030B00001F092FF02214DF22C5001F08DFFFE2114
:1030C0004DF22D5001F088FF03214DF22E5001F0FA
:1030D00083FF10214DF22F5001F07EFF03214DF2AE
:1030E000305001F079FF33214DF2315001F074FF7F
:1030F00003214DF2325001F06FFF6D214DF233503C
:1031000001F06AFF00214FF4564001F065FF3321C2
:103110004DF2016001F060FF00214DF2026001F00C
:103120005BFF34214DF2036001F056FF00214DF2A8
:10313000046001F051FF3A214DF2056001F04CFFAF
:1031400000214DF2066001F047FF4A214DF2076071
:1031500001F042FF00214DF2086001F03DFF5C21CB
:103160004DF2096001F038FF00214DF20A6001F0D4
:1031700033FF81214DF20B6001F02EFF00214DF253
:103180000C6001F029FFA6214DF20D6001F024FF33
:1031900000214DF20E6001F01FFFE5214DF20F609E
:1031A00001F01AFF01214DF2106001F015FF13210B
:1031B0004DF2116001F010FF01214DF2126001F09B
:1031C0000BFF54214DF2136001F006FF01214DF277
:1031D000146001F001FF82214DF2156001F0FCFE48
:1031E00001214DF2166001F0F7FECA214DF2176081
:1031F00001F0F2FE02214DF2186001F0EDFE002117
:103200004DF2196001F0E8FE02214DF21A6001F062
:10321000E3FE01214DF21B6001F0DEFE02214DF2C2
:103220001C6001F0D9FE34214DF21D6001F0D4FE86
:1032300002214DF21E6001F0CFFE67214DF21F60AA
:1032400001F0CAFE02214DF2206001F0C5FE84218A
:103250004DF2216001F0C0FE02214DF2226001F02A
:10326000BBFEA4214DF2236001F0B6FE02214DF217
:10327000246001F0B1FEB7214DF2256001F0ACFEF3
:1032800002214DF2266001F0A7FECF214DF227600A
:1032900001F0A2FE02214DF2286001F09DFEDE2128
:1032A0004DF2296001F098FE02214DF22A6001F0F2
:1032B00093FEF2214DF22B6001F08EFE02214DF2C1
:1032C0002C6001F089FEFE214DF22D6001F084FE9C
:1032D00003214DF22E6001F07FFE10214DF22F6090
:1032E00001F07AFE03214DF2306001F075FE3321CA
:1032F0004DF2316001F070FE03214DF2326001F0B9
:103300006BFE6D214DF2336001F066FE55214FF4E6
:10331000704001F061FEAA214FF2010001F05CFE55
:1033200052214FF2020001F057FE08214FF2030034
:1033300001F052FE00214FF2040001F04DFECC21BD
:103340004FF4314001F048FE00214BF2011001F032
:1033500043FE05214FF4364001F03EFE70214FF44C
:10336000374001F039FE70214BF2017001F034FE5C
:1033700001214FF4384001F02FFE03214BF60100EC
:1033800001F02AFE03214BF6020001F025FE032185
:103390004BF6030001F020FE02214FF43C4001F007
:1033A0001BFE00214BF6014001F016FE00214BF6FA
:1033B000024001F011FED0214FF4494001F00CFE13
:1033C00002214CF6011001F007FE50214CF60210CC
:1033D00001F002FE50214CF6031001F0FDFD5021DA
:1033E0004CF6041001F0F8FD00214FF4545001F0A8
:1033F000F3FD55214FF4685001F0EEFD4FF4885075
:1034000001F0DAFD782002F047FD4FF4245001F07E
:10341000D3FD01F05EB9FE48808849F2253188422B
:103420007ED147F6F001E52001F0D6FD4FF4807122
:10343000012001F0D1FD4FF4E061022001F0CCFD4C
:1034400041F23001032001F0C7FD0021042001F00A
:10345000C3FD40F20221082001F0BEFD0021092039
:1034600001F0BAFD00210A2001F0B6FD00210C2078
:1034700001F0B2FD00210D2001F0AEFD00210F2072
:1034800001F0AAFD0021102001F0A6FD0721112066
:1034900001F0A2FD0021122001F09EFD0021132069
:1034A00001F09AFD0021072001F096FD41F29061A4
:1034B000102001F091FD40F22721112001F08CFD38
:1034C0009D21122001F088FD4FF4C851132001F016
:1034D00083FD2521292001F07FFD0D212B2001F006
:1034E0007BFD0721302001F077FD40F203313120D0
:1034F00001F072FD0321322001F06EFD40F2062141
:10350000352001F069FD0821362001F065FD40F20B
:103510000641372001F060FD4FF44171382000E092
:1035200057E001F059FD0721392001F055FD40F227
:1035300002613C2001F050FD08213D2001F04CFDCE
:103540000021502001F048FDEF21512001F044FD01
:103550000021522001F040FD40F23F11532001F0C4
:103560003BFD4FF42741602001F036FD0121612031
:1035700001F032FD00216A2001F02EFD00218020A3
:1035800001F02AFD0021812001F026FD002182208A
:1035900001F022FD0021832001F01EFD0021842086
:1035A00001F01AFD0021852001F016FD1021902068
:1035B00001F012FD4FF4C061922001F00DFD40F2C8
:1035C0003311072001F008FD2221002001F004FD45
:1035D0001FE78F48808849F2283188427ED141F226
:1035E0008F01EC2001F0F8FC41F23421EF2001F0D2
:1035F000F3FC4FF48071012001F0EEFC4FF4E06128
:10360000022001F0E9FC41F23001032001F0E4FC6A
:103610000021042001F0E0FC40F20221082001F02A
:10362000DBFC0021092001F0D7FC00210A2001F079
:10363000D3FC01210C2001F0CFFC00210D2001F072
:10364000CBFC00210F2001F0C7FC0021102001F06D
:10365000C3FC0721112001F0BFFC0021122001F062
:10366000BBFC0021132001F0B7FC0121072001F071
:10367000B3FC322002F0EAFB41F29041102001F04D
:10368000ABFC40F22721112001F0A6FC322002F011
:10369000DDFB8A21122001F09FFC322002F0D6FBD4
:1036A0004FF4D051132001F097FC0621292001F09E
:1036B00093FC0D212B2001F08FFC322002F0C6FB81
:1036C0000021202001F088FC0021212001F084FC51
:1036D000322002F0BBFB0021302000E074E001F05A
:1036E0007BFC40F20461312001F076FC40F20531B0
:1036F000322001F071FC0021352001F06DFC40F614
:103700000941362001F068FC4FF40171372001F0C7
:1037100063FC40F20131382001F05EFC40F2077199
:10372000392001F059FC00213C2001F055FC40F605
:103730000A213D2001F050FC322002F087FB0021DD
:10374000502001F049FCEF21512001F045FC0021FF
:10375000522001F041FC40F23F11532001F03CFCAB
:103760004FF42741602001F037FC0121612001F076
:1037700033FC00216A2001F02FFC0021802001F0A1
:103780002BFC0021812001F027FC0021822001F088
:1037900023FC0021832001F01FFC0021842001F084
:1037A0001BFC0021852001F017FC1021902001F066
:1037B00013FC4FF4C061922001F00EFC40F2331173
:1037C000072001F009FC24E61148808849F22031E5
:1037D00088427DD10021084601F0FEFB4FF4807144
:1037E000012001F0F9FB4FF4E061022001F0F4FB4D
:1037F00041F23001032001F0EFFB0021042001F031
:10380000EBFB40F20221082001F0E6FB002101E081
:1038100034010020092001F0DFFB00210A2001F023
:10382000DBFB01210C2001F0D7FB00210D2001F072
:10383000D3FB00210F2001F0CFFB322002F006FB6A
:1038400040F20111072001F0C7FB322002F0FEFA1E
:103850004FF48651102001F0BFFB0721112001F029
:10386000BBFB4FF48871122001F0B6FB4FF43061BE
:10387000132001F0B1FB0021292001F0ADFB44F23F
:1038800010012B2001F0A8FB0021502001F0A4FB27
:10389000EF21512001F0A0FB0021522001F09CFB00
:1038A00040F23F11532001F097FB4FF41C51602070
:1038B00001F092FB0121612001F08EFB00216A20C2
:1038C00001F08AFB0021802001F086FB002100E04E
:1038D00031E0812001F080FB0021822001F07CFB9F
:1038E0000021832001F078FB0021842001F074FB8B
:1038F0000021852001F070FB1021902001F06CFB6D
:103900000021922001F068FB0121932001F064FB6B
:103910004FF48871952001F05FFB0021972001F0A2
:103920005BFB0021982001F057FB40F27311072048
:1039300001F052FB6DE5FE48808849F23131884242
:103940007DD141F21401E72001F046FB4FF4807174
:10395000012001F041FB4FF40071022001F03CFB1B
:1039600041F23801032001F037FB40F20221082028
:1039700001F032FB0021092001F02EFB00210A207A
:1039800001F02AFB00210C2001F026FB00210D2074
:1039900001F022FB00210F2001F01EFB002110206E
:1039A00001F01AFB0721112001F016FB0021122063
:1039B00001F012FB0021132001F00EFBC82002F0E1
:1039C00045FA41F29061102001F006FB40F22721F8
:1039D000112001F001FB322002F038FA0C211220F4
:1039E00001F0FAFA322002F031FA4FF400611320AC
:1039F00001F0F2FA1121292001F0EEFA0B212B201F
:103A000001F0EAFA322002F021FA0021202001F030
:103A1000E3FA40F23F11212001F0DEFA00213020CC
:103A200001F0DAFA4FF48371312001F0D5FA002168
:103A3000322001F0D1FA4FF40171352000E064E04A
:103A400001F0CAFA41F20A61362001F0C5FA40F2EB
:103A50000771372001F0C0FA4FF48371382001F06C
:103A6000BBFA40F20771392001F0B6FA40F2024188
:103A70003C2001F0B1FA40F60F413D2001F0ACFAD4
:103A80000021502001F0A8FAEF21512001F0A4FA02
:103A90000021522001F0A0FA40F23F11532001F022
:103AA0009BFA4FF41C51602001F096FA012161202D
:103AB00001F092FA00216A2001F08EFA00218020A4
:103AC00001F08AFA0021812001F086FA002182208B
:103AD00001F082FA0021832001F07EFA0021842087
:103AE00001F07AFA0021852001F076FA1021902069
:103AF00001F072FA4FF4C061922001F06DFA40F2C9
:103B00003311072001F068FA83E48948808845F280
:103B1000084188427ED14FF48071012001F05CFAA7
:103B20004FF4E061022001F057FA41F23001032026
:103B300001F052FA0021042001F04EFA40F2072170
:103B4000082001F049FA0021092001F045FA00217E
:103B50000A2001F041FA00210C2001F03DFA002179
:103B60000D2001F039FA00210F2001F035FA142060
:103B700002F06CF941F2B061102001F02DFA012140
:103B8000112001F029FA0121172001F025FA4FF444
:103B90009C71122001F020FA4FF40061132001F013
:103BA0001BFA0921292001F017FA09212A2001F026
:103BB00013FA0021A42001F00FFA0021502001F097
:103BC0000BFAEF21512001F007FA0021522001F0F9
:103BD00003FA40F23F11532001F0FEF94FF41C515B
:103BE000602001F0F9F90121612001F0F5F90021CF
:103BF0006A2001F0F1F90021802001F0EDF90021A7
:103C0000812001F0E9F90021822001F0E5F900218D
:103C1000832000E023E001F0DFF90021842001F09F
:103C2000DBF90021852001F0D7F91321902001F064
:103C3000D3F90021922001F0CFF90321932001F064
:103C4000CBF94FF48871952001F0C6F940F2731159
:103C5000072001F0C1F9322002F0F8F8B8E4344846
:103C6000808841F2055188427ED10021072001F071
:103C7000B3F9322002F0EAF84FF48E71122001F00D
:103C8000ABF90121A42001F0A7F90F21082001F0D0
:103C9000A3F908210A2001F09FF908210D2001F065
:103CA0009BF940F20771302001F096F9072131208D
:103CB00001F092F940F20361322001F08DF94FF4E6
:103CC000E061332001F088F940F20221342001F054
:103CD00083F90221352001F07FF941F60F7136207A
:103CE00001F07AF940F20771372001F075F90021EF
:103CF000382001F071F90021392001F06DF940F20E
:103D000007713A2001F068F900213B2001F064F9C5
:103D100007213C2001F060F900213D2001F05CF911
:103D2000322002F093F80121072001F055F901E05B
:103D3000340100200121172001F04EF9322002F059
:103D400085F84FF4BD51102001F046F940F21721DB
:103D5000112001F041F94FF48F71122001F03CF96C
:103D60004FF47061132000E097E001F035F9002175
:103D70002A2001F031F90A21292001F02DF94FF410
:103D80009F71122001F028F90021502001F024F940
:103D9000EF21512001F020F90021522001F01CF9FF
:103DA00040F23F11532001F017F94FF41C516020ED
:103DB00001F012F90121612001F00EF900216A20C1
:103DC00001F00AF90021802001F006F9002181208C
:103DD00001F002F90021822001F0FEF80021832089
:103DE00001F0FAF80021842001F0F6F80021852086
:103DF00001F0F2F81321902001F0EEF84FF4407139
:103E0000922001F0E9F80521932001F0E5F8002166
:103E1000952001F0E1F80021972001F0DDF8002164
:103E2000982001F0D9F84FF48071012001F0D4F806
:103E30004FF4E061022001F0CFF841F23801032095
:103E400001F0CAF80021042001F0C6F800210C207E
:103E500001F0C2F800210F2001F0BEF8002120205F
:103E600001F0BAF80021212001F0B6F82121072045
:103E700001F0B2F8142001F0E9FF6121072001F000
:103E8000ABF8142001F0E2FF40F27311072001F0BB
:103E9000A3F8142001F0DAFF95E4FE4880884BF285
:103EA000055188427ED10021084601F095F8002195
:103EB000084601F091F80021084601F08DF8002134
:103EC000084601F089F80121A42001F085F81420AA
:103ED00001F0BCFF4FF41C51602001F07DF840F26E
:103EE0000221082001F078F84FF40571302001F02C
:103EF00073F843F21571312001F06EF840F204615D
:103F0000322001F069F840F61661332001F064F8C0
:103F100042F21121342001F05FF84FF4A85135200E
:103F200001F05AF848F20751362001F055F841F2F5
:103F30000741372001F050F841F20341382001F0E9
:103F40004BF82021392001F047F81A21902001F088
:103F500043F80021102001F03FF80721112001F063
:103F60003BF80021122001F037F80021132001F066
:103F700033F8142001F06AFF4FF4E661102001F0DD
:103F80002BF840F23711112001F026F8142001F02F
:103F90005DFF4FF4DC71122001F01EF8142001F0D7
:103FA00055FF00E083E04FF47061132001F014F836
:103FB00080212A2001F010F84821292001F00CF876
:103FC000142001F043FF4FF48071012001F004F848
:103FD0004FF4E061022000F0FFFF41F238010320BE
:103FE00000F0FAFF40F20221082000F0F5FF002166
:103FF0000A2000F0F1FF00210C2000F0EDFF00216D
:104000000D2000F0E9FF30210E2000F0E5FF002137
:10401000502000F0E1FFEF21512000F0DDFF0021F2
:10402000522000F0D9FF40F23F11532000F0D4FF9E
:104030004FF41C51602000F0CFFF0121612000F0FF
:10404000CBFF00216A2000F0C7FF1121902000F073
:10405000C3FF4FF4C061922000F0BEFF40F2024166
:10406000932000F0B9FF0221942000F0B5FF142046
:1040700001F0ECFE0121072000F0AEFF142001F05A
:10408000E5FE6121072000F0A7FF40F27311072031
:1040900000F0A2FF0021202000F09EFF002121203F
:1040A00000F09AFF2221002000F096FF11E37948EA
:1040B00080884CF2055188427ED10021084600F0EC
:1040C0008BFF0021084600F087FF142001F0BEFEA0
:1040D0000021084600F080FF0021084600F07CFF28
:1040E0000021084600F078FF0021084600F074FF28
:1040F0000121A42000F070FF142001F0A7FE4FF46E
:104100001C51602000F068FF40F60601082000F016
:1041100063FF40F20371302000F05EFF0121312087
:1041200000F05AFF0421322000F056FF4FF4817155
:10413000332000F051FF4FF44071342000F04CFF69
:1041400040F20311352000F047FF1F21362000F018
:1041500043FF40F20371372000F03EFF0121382079
:1041600000F03AFF0421392000F036FF152190209D
:1041700000F032FF4FF48261102000F02DFF40F27A
:104180004721112000F028FF4FF4DE71122000F0CB
:1041900023FF4FF46061132000F01EFF782001F030
:1041A00055FE4FF48071012000F016FF4FF40071AE
:1041B000022000F011FF00E050E041F23001032046
:1041C00000F00AFF08210A2000F006FF00210C2061
:1041D00000F002FF20210E2000F0FEFE00210F2043
:1041E00000F0FAFE0021202000F0F6FE0021212040
:1041F00000F0F2FE3D212A2000F0EEFE142001F036
:1042000025FE2D21292000F0E7FE0021502000F09E
:10421000E3FE4DF2EF01512000F0DEFE00215220BE
:1042200000F0DAFE40F23F11532000F0D5FE0021ED
:10423000612000F0D1FE00216A2000F0CDFE4FF495
:104240004071922000F0C8FE0521932000F0C4FECA
:104250004FF48071072000F0BFFE3AE20D488088DD
:1042600044F2315188427CD10121002000F0B4FE9B
:104270000A2001F0EBFD41F22861102000F0ACFEB5
:104280000E21122000F0A8FE40F63921132000F084
:10429000A3FE01E0340100200A2001F0D7FD4021F7
:1042A000112000F099FE5021152000F095FE0A2003
:1042B00001F0CCFD1E21122000F08EFE0A2001F03C
:1042C000C5FD4FF4B151102000F086FE42F63921B1
:1042D000132000F081FE0A2001F0B8FD4FF4807138
:1042E000012000F079FE4FF44071022000F074FECE
:1042F00041F23801032000F06FFE40F20221082055
:1043000000F06AFE08210A2000F066FE002130203D
:1043100000F062FE40F20241312000F05DFE4FF4F9
:104320008371322000F058FE40F20351332000F038
:1043300053FE4FF48271342000F04EFE40F2013102
:10434000352000F049FE40F20771362000F044FEAF
:1043500040F20531372000F03FFE4FF40271382063
:1043600000E040E000F038FE40F60B71392000F02C
:1043700033FE0221412000F02FFE4FF41C5160203B
:1043800000F02AFE0121612000F026FE4FF40471A6
:10439000902000F021FE4FF48571922000F01CFE69
:1043A0000421932000F018FE4FF48071A02000F04B
:1043B00013FE0121072000F00FFE2121072000F04D
:1043C0000BFE2321072000F007FE3321072000F019
:1043D00003FE40F23311072000F0FEFD0021A02073
:1043E00000F0FAFD75E1C148808844F235518842F9
:1043F0007ED13021152000F0EFFD10219A2000F031
:10440000EBFD2021112000F0E7FD43F228411020B0
:1044100000F0E2FD0221122000F0DEFD41F2380141
:10442000132000F0D9FD282001F010FD12210846CC
:1044300000F0D2FD282001F009FD43F220411020B8
:1044400000F0CAFD43F23801132000F0C5FD4620FC
:1044500001F0FCFC0021302000F0BEFD40F20241E2
:10446000312000F0B9FD40F20731322000F0B4FDF8
:104470004FF44171332000F0AFFD0421342000F0EF
:10448000ABFD40F20141352000F0A6FD40F207717E
:10449000362000F0A1FD40F20531372000F09CFDF0
:1044A0004FF4C261382000F097FD4FF4C26139200B
:1044B00000F092FD4FF48071012000F08DFD4FF46B
:1044C0004071022000F088FD41F23001032000F02D
:1044D00083FD40F60801082000F07EFD08210A2037
:1044E00000F07AFD4FF41C51602000F075FD00E0F3
:1044F00031E00121612000F06FFD4FF49F719020A9
:1045000000F06AFD4FF48071922000F065FD4FF4D9
:104510008071932000F060FD4FF44051A02000F026
:104520005BFD1021A32000F057FD0121072000F0C2
:1045300053FD2121072000F04FFD2321072000F02B
:104540004BFD3321072000F047FD40F233110720D7
:1045500000F042FDBDE06548808841F66311884265
:10456000F8D1E22000F028FD1D2000F01FFD022000
:1045700000F01CFD042000F019FD642001F08CFC0B
:10458000E02000F019FD012000F010FD0A2001F0EC
:104590005DFCE02000F010FD032000F007FD0C2082
:1045A00001F054FC012000F007FD0A2001F04EFC50
:1045B000E62000F001FD2F2000F0F8FCFF2000F0C5
:1045C000F5FCFF2000F0F2FCB02000F0F5FC20200C
:1045D00000F0ECFC002000F0E9FC032000F0E6FC19
:1045E00040F21F3000F0E2FC012000F0DFFC40F25E
:1045F000DF1000F0DBFC002000F0D8FCB42000F05D
:10460000DBFC042000F0D2FC40F21F4000F0CEFCA6
:10461000002000F0CBFC2E2000F0C8FC002000F0B1
:10462000C5FC002000F0C2FC002000F0BFFC002010
:1046300000F0BCFCB62000F0BFFC022000F0B6FC8D
:104640004FF4037000F0B2FC002000F0AFFC172024
:1046500000F0ACFC152000F0A9FC002000F0A6FC46
:10466000002000F0A3FCF02000F0A6FC032000F0E6
:104670009DFC292000F0A0FCD02000F09DFC002033
:1046800000F094FCBE2000F097FC052000F08EFCAA
:10469000FE2000F08BFC012000F088FC002000F0E0
:1046A00085FC002000F082FC002000F07FFCB82098
:1046B00000F082FC032000F079FC012000F076FC81
:1046C000BA2000F079FC012000F070FC642000F0BA
:1046D00027F80020FCF758FA0120054908604FF63A
:1046E000FF70FCF71BFA1FB000BD00003401002072
:1046F0008081214208B5034800880090BDF8000081
:1047000008BD00000008006C10B50446204600F00B
:1047100053FC052001F0C0FBFFF7ECFF10BD0000CB
:104720002DE9F0470446BE2000F046FC052000F0CD
:104730003DFC204601F0DFFD07464FF066320C4B92
:1047400001F0ECFD054601F0A9FD1FFA80F948468D
:1047500000F02CFC012000F029FCFF2000F026FCDA
:10476000002000F023FC002000F020FCBDE8F087D2
:104770006666044070B5044600230026B748807979
:1047800001280BD1B548808846F60401884205D03F
:10479000B248808841F66311884208D1AF488079D9
:1047A000F0B9AE48808841F66311884218D1082CD0
:1047B00015D2DFE804F00406080A0C0E10120624D5
:1047C0000DE007240BE0042409E0052407E00124A0
:1047D00005E0002403E0032401E0022400BF00BF41
:1047E0009E48808849F24131884217D09B48808892
:1047F00046F60401884211D09848808845F210316D
:1048000088420BD09548808845F21051884205D0E7
:104810009248808841F6631188427DD1082C1CD2D1
:10482000DFE804F00406090C0F12151800BF14E0AD
:1048300043F0800311E043F040030EE043F0C00377
:104840000BE043F0200308E043F0600305E043F091
:10485000A00302E043F0E00300BF00BF7F48808870
:1048600045F21051884202D14FF4585600E03626E6
:104870007A48808845F2103188420DD07748808888
:1048800045F21051884207D07448808841F6631180
:10489000884201D043F008037048808846F604013E
:1048A000884201D143F002031946304600F094FBE0
:1048B0006A48808841F6631188421DD003F02000C9
:1048C00068B16648008865494988884214DA6348B7
:1048D0000588408861490880084645800CE05F48AB
:1048E00000885E494988884206DD5C480588408822
:1048F0005A490880084645805848808845F210513A
:10490000884254D15549488900F056FB002000F0F8
:104910004DFB5249498900E078E0491C88B200F01B
:104920004BFB002000F042FB4C494989891C88B2AE
:1049300000F042FB49490988491EC1F30F2000F0ED
:1049400035FB46494989C91C88B200F035FB43490B
:104950000978491EC8B200F029FB4049888900F057
:104960002BFB002000F022FB3C498989491C88B2BE
:1049700000F022FB002000F019FB38498989891CCE
:1049800088B200F019FB35494988491EC1F30F2050
:1049900000F00CFB31498989C91C88B200F00CFB7E
:1049A0002E498978491EC8B200F000FB55E02B491A
:1049B000488900F001FB002000F0F8FA002000F028
:1049C000F5FA26490988491EC1F30F2000F0EEFAD6
:1049D00022490978491EC8B200F0E8FA1F498889BF
:1049E00000F0EAFA002000F0E1FA002000F0DEFA20
:1049F0001A494988491EC1F30F2000F0D7FA174918
:104A00008978491EC8B200F0D1FA26E0082C1CD2E1
:104A1000DFE804F004070A0D0F12151843F0300305
:104A200013E043F0100310E043F020030DE000BF5B
:104A30000BE043F0380308E043F0280305E043F0BF
:104A4000180302E043F0080300BF00BF032643F44D
:104A500080531946304600F0BFFA70BD3401002083
:104A600010B503460C466748808849F241318842B8
:104A700005D06448808845F21031884214D16149DC
:104A8000488900F099FA181200F090FAD8B200F0B4
:104A90008DFA5C49888900F08FFA201200F086FABE
:104AA000E0B200F083FAABE05648808846F6040195
:104AB00088421DD153488079012804D1514800888B
:104AC000401EC01A83B24F49488900F075FA181287
:104AD00000F06CFAD8B200F069FA4A49888900F00F
:104AE0006BFA201200F062FAE0B200F05FFA87E0A1
:104AF0004448808841F66311884247D14148807913
:104B0000A8B940480088401EC01A83B23D49488970
:104B100000F052FA002000F049FA002000F046FAB6
:104B2000181200F043FAD8B200F040FA16E0354906
:104B3000488900F041FA181200F038FAD8B200F0B3
:104B400035FA30490988491EC1F30F2000F02EFACA
:104B50002C490978491EC8B200F028FA29498889E9
:104B600000F02AFA201200F021FAE0B200F01EFA5A
:104B700024494988491EC1F30F2000F017FA214942
:104B80008978491EC8B200F011FA39E01D488088C2
:104B900045F21051884220D11A49488900F00CFA98
:104BA000181200F003FA17494989491C88B200F02D
:104BB00003FAD8B200F0FAF91249888900F0FCF93A
:104BC000201200F0F3F90F498989491C88B200F0DE
:104BD000F3F9E0B200F0EAF912E00A48807901281E
:104BE00004D108480088401EC01A83B2054948898C
:104BF000194600F0F1F903498889214600F0ECF9E3
:104C000010BD0000340100202DE9F04F86B00446AD
:104C10000D469046994604EB0800401E86B205EB0F
:104C20000900401E87B27C48808849F241318842A1
:104C300015D07948808845F2103188420FD07648E7
:104C4000808846F60401884209D07348807901289B
:104C500026D17148808841F66311884220D16E497F
:104C6000488900F0A9F9201200F0A0F9E0B200F0A4
:104C70009DF9301200F09AF9F0B200F097F9664908
:104C8000888900F099F9281200F090F9E8B200F054
:104C90008DF9381200F08AF9F8B200F087F9B8E01F
:104CA0005D48808841F66311884234D15A480088B3
:104CB000A0EB0800001B84B205EB0900401E1FFAA0
:104CC00080F95549488900F077F9201200F06EF913
:104CD000E0B200F06BF904EB0801491EC1F30F20AC
:104CE00000F064F904EB0801491EC8B200F05EF957
:104CF0004949888900F060F9281200F057F9E8B2B4
:104D000000F054F94FEA292000F050F909F0FF00B3
:104D100000F04CF97DE04048808845F2105188420F
:104D200044D13D49488900F047F9201200F03EF98E
:104D300039494989491C88B200F03EF9E0B200F0D7
:104D400035F935494989891C88B200F035F93012A6
:104D500000F02CF930494989C91C88B200F02CF9BF
:104D6000F0B200F023F92C49888900F025F92812C7
:104D700000F01CF928498989491C88B200F01CF907
:104D8000E8B200F013F924498989891C88B200F03F
:104D900013F9381200F00AF91F498989C91C88B231
:104DA00000F00AF9F8B200F001F932E01A4880790F
:104DB00001280ED1AA46BB4617480088801B401E1A
:104DC00080B2019014480088001B401E80B2009001
:104DD00003E0A246B346019500975020059051206C
:104DE000049052200390532002905146059800F001
:104DF000F3F85946049800F0EFF80199039800F091
:104E0000EBF80099029800F0E7F829462046FFF7F2
:104E100027FE06B0BDE8F08F340100202DE9F84FE1
:104E200080460E4617461C46B3462046E31704EB61
:104E30005373DB1021464FEAE47C04EB5C7C4FEAC1
:104E4000EC0CA4EBCC0CBCF1000F02D04FF0010C29
:104E500001E04FF0000C6344224604EBD27C4FEAA1
:104E60006C0C03FB0CF3DBB20093A7F12000C7B27C
:104E7000002556E00C2C07D107EB47002B4901EB2E
:104E8000800010F8059013E0102C05D1284800EBA5
:104E9000071010F805900BE0182C07D107EBC7009E
:104EA000244901EB800010F8059001E0BDE8F88F7F
:104EB0004FF0000A2FE009F0800030B11E48028850
:104EC00031464046FBF740FF07E00A9828B91B48E7
:104ED000028831464046FBF737FF4FEA49604FEA08
:104EE0001069701C86B216484088B04200DCDDE7CD
:104EF000A6EB0B00A0420AD15E4608F101001FFAA2
:104F000080F80F480088404500DCCFE706E00AF152
:104F1000010000F0FF0ABAF1080FCCDB00BF681CEB
:104F2000C5B200988542A5DB00BFBFE71865000841
:104F30008C6900087C6F0008640000206600002077
:104F4000340100202DE9F84704460D469046994665
:104F5000DDE9096704F0FF0A08EB04001FFA80F896
:104F600009EB05001FFA80F916E0444502DB5446C0
:104F7000A81985B24D4500DB14E0002000903A7876
:104F8000334629462046FFF749FF304606EBD071ED
:104F900004EB61018CB27F1C38787E2802DC387803
:104FA0002028E2DA00BFBDE8F88700000149088048
:104FB000704700000008006C01490880704700003D
:104FC000FE07006C02480089024908807047000013
:104FD00034010020FE07006C024A1080921C1180F0
:104FE00070470000FE07006C08B52020ADF80000F7
:104FF00003208DF8020010208DF8030001214820C5
:1050000000F0F0F969460848FBF724FC2021064827
:10501000FBF7FDFC69460548FBF71CFC2021034813
:10502000FBF7F5FC08BD0000000C01400018014032
:1050300000BFFEE77047000070B5002100230F227B
:10504000C47804B3154C246804F4E064C4F5E06447
:10505000210AC1F10403CA40447804FA03F18478B8
:105060001440214309010E4C0678A155047804F040
:105070001F050124AC4005786D11AD0005F1E02558
:10508000C5F8004109E0047804F01F050124AC4094
:10509000044D0678761145F8264070BD0CED00E011
:1050A00000E400E080E100E002490143024A1160AF
:1050B000704700000000FA050CED00E070B50446F2
:1050C000002534B1012C06D0032C06D0042C08D1C5
:1050D00005E0B02505E0982503E0182501E030251E
:1050E00000BF00BF2946552000F03EFB70BD2DE9F2
:1050F000F0410446802522265E2734B1012C08D0D9
:10510000032C0AD0042C10D10BE0402511262F27A8
:105110000BE066251B264B2707E0992528267127DB
:1051200003E0C02533268D2700BF00BF29464F204E
:1051300000F01AFB2946502000F016FB00215120F8
:1051400000F012FB3146522000F00EFB394653208E
:1051500000F00AFB2946542000F006FB9E2158204F
:1051600000F002FBBDE8F08170B50446402534B183
:10517000012C06D0032C06D0042C08D105E03025E4
:1051800005E0382503E0502501E0602500BF00BFA1
:105190002946562000F0E8FA70BD000038B5002519
:1051A000012140F23D1000F01DF94FF48070ADF880
:1051B000000048208DF8030003208DF802006946A6
:1051C0003748FBF747FB4FF480713648FBF71FFC6D
:1051D0001820ADF8000010208DF803006946324811
:1051E000FBF738FB18213048FBF711FCFF20ADF826
:1051F000000048208DF8030069462C48FBF72AFB85
:105200004020ADF8000010208DF8030069462848C2
:10521000FBF720FB40212648FBF7F9FB4FF4404009
:10522000ADF8000010208DF8030069461C48FBF71C
:1052300011FB4FF440411A48FBF7E9FB01211D48DF
:10524000FBF794FB00F048F98021122000F08CFA63
:1052500008B1012038BD322000F0F8FD0B2000F02D
:10526000D1F90446732C01D00220F3E70A2000F0A4
:10527000C9F90446762C01D00220EBE700250AE0AC
:105280000D4A02EB450251780B4A12F8150000F066
:105290006BFA681C85B2A82DF2D30020DAE7000073
:1052A0000020014000080140000C014000100140B6
:1052B0000014014000023000D87C00082DE9F041C4
:1052C0000446E72500260027012C06D0022C08D032
:1052D000032C0AD0042C10D10BE0E5255A265C27BC
:1052E0000BE0E5255826602707E0E52584264C27B6
:1052F00003E0E5259626402700BF00BF294613207E
:1053000000F032FA3146012000F02EFA3946022030
:1053100000F02AFABDE8F0812DE9F04705460E4677
:105320009046994605EB48001FFA80FA06EB4900C3
:1053300087B2B7F5447F02DDA7F5447087B203203A
:1053400000F060F9044604F0F0040AF00301284676
:1053500061F39F0004432146032000F005FAC5F3E2
:105360008701192000F000FACAF387011A2000F023
:10537000FBF9322000F046F9044604F0C00407F0BF
:105380000701304661F3DF000443C6F3C70117206D
:1053900000F0EAF9C7F3C701182000F0E5F9BDE80D
:1053A000F087704729B1064A52690243044B5A619B
:1053B00004E0034A52698243014B5A61704700007E
:1053C0000010024029B1064AD2690243044BDA6157
:1053D00004E0034AD2698243014BDA61704700005E
:1053E0000010024029B1064A92690243044B9A61B7
:1053F00004E0034A92698243014B9A6170470000BE
:105400000010024030B500210022002400232D4D61
:105410006D6805F00C0121B1042905D0082923D1BC
:1054200005E0294D056022E0274D05601FE0254D70
:105430006D6805F47012234D6D6805F48034022503
:1054400005EB92421CB9214D554305600BE01D4D03
:105450006D6805F400351DB11C4D5543056002E033
:10546000194D5543056002E0174D056000BF00BFB0
:10547000144D6D6805F0F0010909154D6B5C056868
:10548000DD4045600F4D6D6805F4E061090A104D7F
:105490006B5C4568DD4085600A4D6D6805F46051C0
:1054A000C90A0B4D6B5C4568DD40C560054D6D68F4
:1054B00005F44041890B074D6B5CC568B5FBF3F5FE
:1054C000056130BD0010024000127A0000093D0065
:1054D0004E0000205E00002008B501214FF49070BE
:1054E000FFF780FF4FF40050ADF8000048208DF822
:1054F000030003208DF8020069461148FBF7AAF962
:105500004FF400510E48FBF782FA0820ADF8000076
:1055100010208DF8030069460A48FBF79BF9082123
:105520000848FBF774FA0648406820F47000044904
:1055300048600846406840F44010486008BD0000DC
:10554000002001400014014010B5322000F0A4FCFE
:1055500001200B4908600B49C1F88C01322000F092
:105560009BFC002008490860322000F095FC0020D8
:105570000649C1F8B401322000F08EFC10BD0000D5
:10558000B4012442008022428C8122420000244245
:1055900070B500241848406820F47000164948602F
:1055A0000846406840F400004860082515E03220B5
:1055B00000F072FC0120114908606006040E1048DA
:1055C000D0F8340108B1601CC4B2322000F064FC91
:1055D00000200A490860681EC5B2002DE7DC0648B5
:1055E000406820F47000044948600846406840F470
:1055F00040104860204670BD002001408C8122424E
:105600000000244270B50446002500F023F8422033
:1056100000F054F8642000F03FFC204600F04EF803
:10562000642000F039FC00F02FF8642000F034FC16
:1056300000F010F8432000F041F8642000F02CFC4A
:10564000FFF7A6FF0546FFF77FFF00F01DF828468D
:1056500070BD000010B50120094908600949C1F872
:105660008C01322000F018FC00200549086032202F
:1056700000F012FC00200349C1F88C0110BD0000AD
:10568000B40124420080224210B50020094908607C
:10569000322000F001FC01200749C1F88C013220C2
:1056A00000F0FAFB012003490860322000F0F4FB0F
:1056B00010BD0000B40124420080224270B50446AF
:1056C00000261AE004F0800018B10120214908608A
:1056D00002E000201F4908606006040E322000F03E
:1056E000DBFB01201C490860322000F0D5FB0020C4
:1056F0001A49C1F88C01701CC6B2082EE2DB1848AA
:10570000406820F47000164948600846406840F43C
:1057100000004860322000F0BFFB01200E49086005
:10572000322000F0B9FB0F48D0F8340108B1012550
:1057300000E000250020084908600948406820F47E
:105740007000074948600846406840F440104860CF
:10575000284670BDB40124428C812242008022423E
:10576000002001400000244270B505460C4600268A
:10577000FFF770FF4220FFF7A1FF00B10126642070
:1057800000F08AFB2846FFF799FF00B1012664204C
:1057900000F082FB2046FFF791FF00B10126FFF7E2
:1057A00073FF304670BD704710B500F001F810BDB2
:1057B0000CB50020019000903348006840F4803020
:1057C0003149086000BF3048006800F400300090A4
:1057D0000198401C0190009818B90198B0F5A06F8D
:1057E000F1D12948006800F4003010B10120009088
:1057F00001E0002000900098012843D12348006870
:1058000040F01000214908600846006820F00300BD
:1058100008600846006840F0020008601A484068C6
:10582000194948600846406848600846406840F4A6
:10583000806048600846406820F47C104860084654
:10584000406840F4E81048600846006840F0807006
:10585000086000BF0C48006800F000700028F9D014
:105860000948406820F0030007494860084640683E
:1058700040F00200486000BF0348406800F00C00A0
:105880000828F9D10CBD00000010024000200240A1
:10589000042808D14FF0E021096941F004014FF0DC
:1058A000E022116107E04FF0E021096921F00401D5
:1058B0004FF0E022116170477047000010B51348A7
:1058C000006840F00100114908600846406810492E
:1058D00008400E494860084600680E4908400B49D8
:1058E00008600846006820F4802008600846406888
:1058F00020F4FE0048604FF41F008860FFF754FF5B
:105900004FF000600449086010BD00000010024024
:105910000000FFF8FFFFF6FE08ED00E07FB505464A
:105920000C4601210846FFF74DFD0020ADF80600AA
:10593000ADF80200ADF80450ADF8004069464FF0F4
:10594000804000F061F801224121880700F052F800
:105950000121880700F031F81C208DF80C0001208F
:105960008DF80D0003208DF80E0001208DF80F003A
:1059700003A8FFF761FB7FBD10B50121880700F088
:1059800028F838B10648017806A0FAF74BFC002049
:10599000034908700121880700F00CF810BD0000D1
:1059A000690000206672616D653A20256466707337
:1059B0000D0A0000CA430282704721B1028842F0FA
:1059C0000102028004E002884FF6FE731A40028052
:1059D000704730B50246002000230024158A05EAEE
:1059E0000103958905EA010413B10CB1012000E01F
:1059F000002030BD1AB183890B43838102E0838983
:105A00008B43838170470000002202881D4B98421F
:105A10000ED01D4B98420BD0B0F1804F08D01B4BDD
:105A2000984205D01A4B984202D01A4B984204D1A2
:105A30004FF68F731A404B881A43174B984207D082
:105A4000164B984204D04FF6FF431A40CB881A43B6
:105A500002808B8883850B8803850A4B98420BD084
:105A6000094B984208D00E4B984205D00D4B9842F6
:105A700002D00D4B984201D10B7A03860123838219
:105A800070470000002C0140003401400004004039
:105A900000080040000C00400010004000140040CE
:105AA00000400140004401400048014010B540F270
:105AB00025511D4800F04AF810B31B4800F002F9C8
:105AC000C4B21A48008800F40040C8B917480088DA
:105AD00000F4804060B10A2C03D0002013490880F4
